:100000000C9462000C948A000C948A000C94A22D2B
:100010000C94F52C0C94482C0C948A000C94352FDD
:100020000C948A000C948A000C948A000C944F2E35
:100030000C948A000C940E2F0C948A000C948A0065
:100040000C94A0290C948A000C942A2A0C94042A5B
:100050000C948A000C948A000C948A000C948A00F8
:100060000C94622A0C948A000000000024002700EF
:100070002A0000000000250028002B0000000008D6
:10008000000201000003040700000000000000005F
:1000900000000000230026002900040404040404D6
:1000A0000404020202020202030303030303010227
:1000B00004081020408001020408102001020408F6
:1000C00010208D2911241FBECFEFD8E0DEBFCDBF99
:1000D00011E0A0E0B1E0E8E8F9E602C005900D9279
:1000E000A634B107D9F726E0A6E4B1E001C01D921D
:1000F000AE32B207E1F710E0C2E6D0E004C02197CB
:10010000FE010E94F130C136D107C9F70E94FB29D8
:100110000C94C2340C94000008958330B1F060F068
:100120008730E9F0883009F1843021F5E0E8F0E02B
:1001300080818F7D80830895813069F0823021F441
:1001400084B58F7D84BD08950895E0E8F0E0808156
:100150008F778083089584B58F7784BD0895E0EB11
:10016000F0E080818F7780830895E0EBF0E080817C
:100170008F7D80830895CF93DF93282F30E0F9019E
:10018000E458FF4F8491F901E255FF4FD491F901F2
:10019000E656FF4FC491CC23B1F081110EC0EC2F75
:1001A000F0E0EE0FFF1FE057FF4FA591B491EC91E7
:1001B000ED2331F490E080E008C00E948D00EFCF85
:1001C00081E090E002C090E080E0DF91CF9108955F
:1001D0001F93CF93DF93282F30E0F901E458FF4FAE
:1001E0008491F901E255FF4F1491F901E656FF4F52
:1001F000C491CC23A9F0D62F811116C0EC2FF0E0CA
:10020000EE0FFF1FEE58FF4FA591B4918FB7F894F2
:10021000D1110DC09C91E12FE095E923EC938FBFA4
:10022000DF91CF911F9108950E948D00E7CFEC914F
:10023000E12BEC93F4CFCF93DF9390E0FC01E255F8
:10024000FF4F249186569F4FFC018491882319F11A
:1002500090E0880F991FFC01E859FF4FA591B491D8
:10026000FC01EE58FF4FC591D491662349F06230EE
:10027000A9F08FB7F894EC91E22BEC938FBF0BC0F1
:100280009FB7F8948C91E22FE0958E238C93888110
:10029000E823E8839FBFDF91CF9108959FB7F8943B
:1002A0003C91822F809583238C93E881E22BE88315
:1002B0009FBFF1CF1F93CF93DF93182FEB0161E026
:1002C0000E941B012097D9F0CF3FD10501F1E12F0A
:1002D000F0E0E458FF4FE491E33061F1E8F0E730FB
:1002E000E9F1E83009F442C0E43071F1C038D105D9
:1002F0000CF444C061E0812F0E94E80004C060E07B
:10030000812F0E94E800DF91CF911F91089561E055
:10031000812F0E94E800F7CFE13039F0E23031F769
:1003200084B5806284BDC8BDEECF84B5806884BDCD
:10033000C7BDE9CFE0E8F0E0808180688083D0939A
:100340008900C0938800DFCFE0E8F0E08081806220
:100350008083D0938B00C0938A00D5CFE0EBF0E090
:10036000808180688083C093B300CDCFE0EBF0E064
:10037000808180628083C093B400C5CF60E0812F0C
:100380000E94E800C0CF8E3008F08E5087708064E5
:1003900080937C00EAE7F0E0808180648083809134
:1003A0007A0086FDFCCF80917800909179000895C5
:1003B000789484B5826084BD84B5816084BD85B540
:1003C000826085BD85B5816085BDEEE6F0E0808107
:1003D00081608083E1E8F0E0108280818260808328
:1003E000808181608083E0E8F0E0808181608083AB
:1003F000E1EBF0E0808184608083E0EBF0E08081DD
:1004000081608083EAE7F0E080818460808380817E
:100410008260808380818160808380818068808326
:100420001092C10008958230910538F0880F991F0D
:10043000880F991F05970197F1F708953FB7F89432
:100440008091260690912706A0912806B091290652
:1004500026B5A89B05C02F3F19F00196A11DB11D1F
:100460003FBFBA2FA92F982F8827BC01CD01620F5B
:10047000711D811D911D660F771F881F991F660FC3
:10048000771F881F991F08958F929F92AF92BF92F6
:10049000CF92DF92EF92FF926B017C010E941E02CD
:1004A0004B015C011BC021E0C21AD108E108F10830
:1004B00088EE880E83E0981EA11CB11CC114D104E3
:1004C000E104F10459F00E941E02681979098A09B1
:1004D0009B09683E73408105910528F7C114D1043A
:1004E000E104F10459F7FF90EF90DF90CF90BF90B7
:1004F000AF909F908F9008952FB7F8946091220647
:100500007091230680912406909125062FBF0895AF
:1005100008954F925F926F927F92AF92BF92CF9267
:10052000DF92EF92FF920F931F93CF93DF93CDB79C
:10053000DEB729013A019B01AC01241935094609AE
:10054000570989899A89AB89BC89BC01CD016A198F
:100550007B098C099D090E94C130A80197012419CB
:100560003509460957090E946630CA01B9016A0D6A
:100570007B1D8C1D9D1DDF91CF911F910F91FF90D1
:10058000EF90DF90CF90BF90AF907F906F905F9093
:100590004F900895DC01ED91FC910190F081E02DE8
:1005A00009950895CF92DF92EF92FF920F931F93D8
:1005B000CF93DF938C01DB01D0E0C0E07A0181E0D2
:1005C000E81AF108452BA1F0F80180819181FC0126
:1005D000208131816D01FFEFCF1ADF0A6C91C801D4
:1005E000F9010995892B21F02196A701D601E6CFC3
:1005F000CE01DF91CF911F910F91FF90EF90DF908F
:10060000CF900895019709F008956F3F7F4FE1F76C
:10061000E4E8F5E01382128288EE93E0A0E0B0E017
:1006200084839583A683B78384E391E09183808359
:1006300085EC90E09587848784EC90E097878687A7
:1006400080EC90E0918B808B81EC90E0938B828B9F
:1006500082EC90E0958B848B86EC90E0978B868B78
:10066000118E128E138E148ECFCFFC01938D848D3C
:10067000981720F4891B990B019708952FE330E018
:10068000291B3109820F932F911D0895FC01918D33
:10069000828D981761F0A28DAE0FBF2FB11D5D96B0
:1006A0008C91928D9F5F9F73928F90E008958FEF52
:1006B0009FEF0895FC01918D828D981731F0828D06
:1006C000E80FF11D858D90E008958FEF9FEF08955D
:1006D000FC01218D30E0205C3F4F828DA901481B39
:1006E0005109CA018F739927089584E895E00E9403
:1006F000680321E0892B09F420E0822F0895CF922E
:10070000DF92EF92FF921F93CF93DF93EC016A0188
:100710007B01122F60E079E08DE390E0A701960164
:100720000E94903021503109410951095695479551
:1007300037952795E889F98982E08083C11481EE95
:10074000D806E104F10421F0211580E1380798F082
:10075000E889F989108260E874E88EE190E0A701E9
:1007600096010E9490302150310941095109569556
:10077000479537952795EC85FD853083EE85FF8578
:100780002083188EEC89FD891083EA89FB8980819A
:1007900080618083EA89FB89808188608083EA891F
:1007A000FB89808180688083EA89FB8980818F7DD5
:1007B0008083DF91CF911F91FF90EF90DF90CF90DA
:1007C0000895FC01A48DA80FB92FB11DA35ABF4FE6
:1007D0002C91848D90E001968F739078848FA689F8
:1007E000B7892C93A089B1898C91837080648C9394
:1007F000938D848D981308950288F389E02D80816C
:100800008F7D8083F8CF0F931F93CF93DF93EC01FD
:1008100081E0888F9B8D8C8D9817B1F0062F8B8D82
:1008200090E001968F739078182F8C8D81131EC0E5
:100830000FB607FCFACFE889F989808185FFF5CFEB
:10084000CE010E94E103F1CFE889F989808185FF1B
:10085000E5CF9FB7F894EE89FF896083E889F9892D
:1008600080818370806480839FBF10C0EB8DEC0F0C
:10087000FD2FF11DE35AFF4F00839FB7F8941B8FA4
:10088000EA89FB898081806280839FBF81E090E05C
:10089000DF91CF911F910F910895CF93DF93EC01DA
:1008A000888D811104C00DC00FB607FE0DC0EA8906
:1008B000FB89808185FDF8CFA889B9898C9186FF55
:1008C000F3CFDF91CF910895808185FFF0CFE88944
:1008D000F989808185FFEBCFCE010E94E103E7CF4C
:1008E00080E090E0892B21F00E947503811101C006
:1008F00008950E940000FCCF85EC8093BC0010920C
:100900005E050895811104C085E88093BC000895B8
:1009100085EC8093BC00089590933705809336054D
:10092000089590933B0580933A050895AC0120917A
:100930003805260F3327331F21323105F4F4809117
:100940005E058430E1F490E00FC0E0913805292F76
:1009500030E0E20FF32FF11D240F351FD9012C9148
:10096000EA5EFA4F20839F5F961778F380913805EF
:10097000680F6093380580E0089581E0089582E073
:100980000895880F8093BA000895ECEBF0E0808121
:100990008A7B808360E082E10E94E80060E083E17E
:1009A0000E94E800089510925E0581E08093600542
:1009B00010925F0561E082E10E94E80061E083E15E
:1009C0000E94E800E9EBF0E080818E7F80838081E7
:1009D0008D7F808388E48093B80085E48093BC0099
:1009E0000895EF92FF920F931F93CF93DF9391E0BF
:1009F00090931505811107C0DF91CF911F910F9141
:100A0000FF90EF900895C8EBD0E0F8800AEB10E07B
:100A1000F801E0800E94C5040E94D304F801E0823E
:100A2000F882EACF709303056093020508957093EE
:100A30000105609300050895E0910205F09103051A
:100A4000309729F01092FF041092FE040995089542
:100A5000CF93DF93EC01E0910005F0910105309711
:100A6000E1F09091FD048091FC049817B0F090E0C3
:100A7000292F30E02617370754F4DE01A90FB11DE6
:100A80004C9124523B4FD9014C939F5FF1CFCB0146
:100A90001092FD046093FC040995DF91CF910895B5
:100AA0000895E091FD048091FC04E81730F4F0E033
:100AB000E452FB4F808190E008958FEF9FEF0895FF
:100AC0009091FD048091FC04981758F4E92FF0E010
:100AD000E452FB4F208130E09F5F9093FD04C901F9
:100AE00008952FEF3FEFFBCF8091FC049091FD0420
:100AF000891B990B0895CF93DF93CB01C42FD52F7A
:100B0000642F0E9496048C2F9D2FDF91CF91089522
:100B1000CF93DF931F92CDB7DEB7698361E0CE013B
:100B200001960E94960481E090E00F90DF91CF91B2
:100B300008951092FD041092FC041092FF0410928C
:100B4000FE040E94D3048CE195E00E948C0488E2AC
:100B500095E00E9491040895CF93C62F0E949905B5
:100B60008C2F0E94C104CF9108950E94AC05089576
:100B7000FC011382128288EE93E0A0E0B0E084834F
:100B80009583A683B78382E291E091838083089561
:100B9000019709F008956F3F7F4FE1F784E095E0FA
:100BA0000E94B805F7CF90E080E00895CF93DF93DF
:100BB000863158F468E670E0883050F08E3088F066
:100BC000863190F4CCE6D0E005C070E060E0F4CF70
:100BD000CDE6D0E0883058F091E08E3048F490E0D7
:100BE00007C0CBE6D0E0F6CFD0E0C0E0F3CF92E094
:100BF000883040F08E3018F4E8EFE80F04C0E2EFE0
:100C0000E80F01C0E82F4E2F50E021E030E002C095
:100C1000220F331FEA95E2F7913009F448C030F013
:100C2000923009F441C0F0E0E0E002C0E9EBF4E00A
:100C300061157105B1F12097A1F1309791F13FB79E
:100C4000F894440F551F440F551FDF01A40FB51F23
:100C500011961C921E9213961C921E92129720952A
:100C600091A1922391A392A1922392A398812923E7
:100C700028839881911114C0FB0190818830D0F0B5
:100C800021E08E3008F420E041E050E002C0440F43
:100C9000551F2A95E2F7842F80958923FB018083D5
:100CA0003FBFDF91CF910895E3E7F4E0C1CFE6E9DC
:100CB000F4E0BECF8BEFF1CF8F929F92AF92BF92B5
:100CC000CF92DF92EF92FF920F931F93CF93DF9318
:100CD000863170F4C8E6D0E0883068F08E30B8F025
:100CE0008631D8F40F2EFCE6EF2EF12CF02D08C043
:100CF000D0E0C0E0F1CF0F2EFDE6EF2EF12CF02D6D
:100D0000883070F091E08E3060F490E00AC00F2ED1
:100D1000FBE6EF2EF12CF02DF3CFF12CE12CF0CFF0
:100D200092E0883040F08E3018F438EF380F04C06D
:100D300032EF380F01C0382FC32ED12CE1E0F0E0A4
:100D40004F0102C0880C991C3A95E2F7913091F15D
:100D500028F0923061F1B0E0A0E002C0A9EBB4E06D
:100D6000209709F493C0E114F10409F48FC010979F
:100D700009F48CC06115710509F488C01FB7F89497
:100D80005601AA0CBB1CAA0CBB1CAA0EBB1EF5016B
:100D90007183608353834283233079F0213069F07B
:100DA00091964C919197382D309534230AC0A3E742
:100DB000B4E0D6CFA6E9B4E0D3CF91963C91919719
:100DC000382991963C9391972150223050F1929678
:100DD0003C919297282D2095232392962C939297BD
:100DE000F70120812829208328818830F8F031E01C
:100DF0008E3008F430E081E001C0880F3A95EAF7C0
:100E0000822B888390962C919097882D809528230B
:100E1000913009F448C060F0923009F446C080E097
:100E200008C092962C9192972829D7CF84E0E8CFDA
:100E300083B18821822B90968C939097002329F17F
:100E400092962C91929730E0482F50E04095509523
:100E50002423352391969C9191979823292B28211F
:100E60003921232B91F0E82DE82361E009F460E0BB
:100E7000CC0CDD1CCC0CDD1CAC0DBD1DED91FC9132
:100E8000119712968D919C9109951FBFDF91CF917B
:100E90001F910F91FF90EF90DF90CF90BF90AF9098
:100EA0009F908F90089586B1C4CF89B1C2CF8F92A1
:100EB0009F92AF92BF92CF92DF92EF92FF92CF9329
:100EC000DF93EB01BA0190E080E00E945B324B01BE
:100ED0005C01BE0190E080E00E945B326B017C010E
:100EE0002DEC3CEC4CE45FE30E940D339B01AC0124
:100EF000C501B4010E94AE318823ECF02DEC3CEC2E
:100F00004CE45FE3C501B4010E940D339B01AC01C9
:100F1000C701B6010E94AE31882384F482E090E0DC
:100F2000DF91CF91FF90EF90DF90CF90BF90AF9087
:100F30009F908F90089590E080E0F2CF81E090E064
:100F4000EFCF8F929F92AF92BF92CF92DF92EF92AC
:100F5000FF920F931F93CF93DF93FB01C484D5843B
:100F6000F6E0CF16D1040CF459C0EB017C0101E08E
:100F700010E00F2EF5EC8F2EFDE99F2EFCE1AF2E39
:100F8000F1E8BF2EF02DC80102968C159D054CF599
:100F90008A859B85F8013296EE0FFF1FE80FF91F37
:100FA000408151819801220F331F820F931FFC0152
:100FB00060817181C7010E945707FC01A50194015E
:100FC00063E971E080E091E00E94C1304F01FF0FC2
:100FD000AA08BB0886269726A826B9260F5F1F4FAA
:100FE000D2CF8C829D82AE82BF8280E290E09987D0
:100FF00088878FEF9FEF9983888361E070E080E0BE
:1010000090E0DF91CF911F910F91FF90EF90DF90D3
:10101000CF90BF90AF909F908F90089560E070E068
:10102000CB01EFCF6093A2030895E1EAF3E082E001
:10103000808314820895F89482E08093B0008093B6
:10104000B10094E69093B3001092B20080937000C8
:101050007894E1EAF3E080831482818160E00E9469
:101060001B010895E1EAF3E082E081831382089591
:10107000CF92DF92EF92FF920F931F93CF93DF9364
:10108000FC01C081D0E0FE01ED5BFC4F8081882334
:1010900009F45FC0FE01ED5BFC4F8081813009F0F7
:1010A00069C0611170C00E941E02FE01EE0FFF1F99
:1010B000EC0FFD1FEE0FFF1FEE0FFF1FED54FD4F56
:1010C0006087718782879387FE01EE0FFF1FEC0F09
:1010D000FD1FEE0FFF1FEE0FFF1FED54FD4F84812C
:1010E0009581A681B78100851185228533850817F2
:1010F00019072A073B07F0F5BC01CD01601B710BF6
:10110000820B930B28EE33E040E050E00E949030D9
:101110006901330FEE08FF08CE01880F991FFC010B
:10112000EC0FFD1FEE0FFF1FEE0FFF1FED54FD4FE5
:101130004081518162817381C40ED51EE61EF71E67
:10114000C082D182E282F3821482158216821782D3
:1011500011C0CC0FDD1FCC0FDD1FC15EDC4F8881BD
:101160009981AA81BB810196A11DB11D88839983B4
:10117000AA83BB83DF91CF911F910F91FF90EF90D6
:10118000DF90CF9008950E941E02FE01EE0FFF1F18
:10119000EC0FFD1FEE0FFF1FEE0FFF1FED54FD4F75
:1011A00064837583868397838FCF8F929F92AF924C
:1011B000BF92CF92DF92EF92FF920F931F93CF9344
:1011C000DF930E941E0228EE33E040E050E00E94D0
:1011D000903069017A01D0E0C0E026C0CE01880FCE
:1011E000991F880F991FFC01E15EFC4F40815181DE
:1011F00062817381825C9D4FDC014D935D936D93A1
:101200007C9313971082118212821382FE01EE0FDB
:10121000FF1FEE0FFF1FEE0FFF1FEE59FD4FC482A1
:10122000D582E682F7822196C930D1050CF060C0E4
:10123000FE01E655FD4F80818823A9F3FE01EE0FE4
:10124000FF1FEE0FFF1FEE0FFF1FEE59FD4F8481B2
:101250009581A681B78146015701881A990AAA0A81
:10126000BB0A80819181A281B38188169906AA0662
:10127000BB06C8F2FE01ED5BFC4F8081882309F4B8
:10128000ADCF813019F68E01000F111F0C0F1D1FFD
:10129000000F111F000F111F0D541D4FF801208169
:1012A000318142815381FE01EE0FFF1FEE0FFF1FC0
:1012B000EE0FFF1FEE59FD4F608171818281938196
:1012C0000E94C130A50194010E949030FE01EE0FF2
:1012D000FF1FEE0FFF1FE25CFD4F2083318342832F
:1012E0005383D8011D921D921D921C9213978ECF8D
:1012F000DF91CF911F910F91FF90EF90DF90CF90F2
:10130000BF90AF909F908F9008950F931F93CF93AE
:10131000082F10E0F801E655FD4F9081911104C0AF
:10132000CF911F910F9108950E94D60561E0802F03
:101330000E941B01F801E655FD4F1082F1CF80910C
:101340003D02882361F0E0910405F09105050190CC
:10135000F081E02D67E184E095E0099508958091A2
:101360003802813009F44AC080913802833061F03C
:1013700080913802873041F080913802883321F023
:1013800080913802853641F443E050E063E272E038
:1013900084E095E00E947B05809138028830B9F1A5
:1013A00080913802843199F1809138028E31C1F1F7
:1013B000809138028832E9F1809138028A3009F44C
:1013C00041C0809138028C3009F445C080913802C8
:1013D000853109F449C0809138028D3009F44FC03D
:1013E00080913802883109F0B9CF42E050E063E2E1
:1013F00072E084E095E00E947B05089542E050E0B1
:1014000063E272E084E095E00E947B05ADCF44E0AA
:1014100050E063E272E084E095E00E947B05C4CF77
:1014200049E050E063E272E084E095E00E947B05D1
:10143000BFCF49E050E06EE072E084E095E00E94AA
:101440007B05BACF45E050E063E272E084E095E0CE
:101450000E947B05B6CF43E050E063E272E084E097
:1014600095E00E947B05B2CF48E050E063E272E075
:1014700084E095E00E947B0510922302ACCF45E00A
:1014800050E063E272E084E095E00E947B05A8CF23
:1014900084E095E00E947405892B29F084E095E0B2
:1014A0000E946005F5CF089580913D028823B1F038
:1014B0000E94480A089584E095E00E94600520910A
:1014C0000A0230910B02A9014F5F5F4F50930B024C
:1014D00040930A02285C3D4FF901808384E095E047
:1014E0000E947405892BA9F084E095E00E947405A0
:1014F000049709F710920D0210920C0210920B0241
:1015000010920A0281E090E0909309028093080211
:10151000D2CF81E080933D020895DC01EC918E2FC3
:1015200090E0FC01EE0FFF1FE80FF91FE45BFE4F98
:10153000808186FB882780F90895FC0180818F3F98
:10154000E1F090E0FC01EE0FFF1FE80FF91FE45BF4
:10155000FE4F81819281880F991F880F991F880FF4
:10156000991FB0E0A0E0689413F8B595A7959795FA
:1015700087951694D1F70296089590E080E008953B
:10158000AF92BF92CF92DF92EF92FF920F931F9391
:10159000CF93DF93FC0122810F2EF8E5EF2EF2E0CE
:1015A000FF2EF02DE21AF10827FDF394EE0CFF1C3C
:1015B000EE0CFF1C418128E830E0241B310947FD77
:1015C0003395E901CC0FDD1FCC0FDD1F0E949D0A72
:1015D00001960F2C000C000B110B9E01DD0F440B2C
:1015E000550BBC01990F880B990B1F921F921F92EC
:1015F000E4EBEF93A12CB12C65010E9489020F90BE
:101600000F900F900F90CB01DF91CF911F910F9111
:10161000FF90EF90DF90CF90BF90AF9008950F9321
:101620001F93FC0140814C3008F04DC0518128E8E7
:1016300030E0251B310957FD3395220F331F220F50
:10164000331F621773077CF0828128E532E0281B84
:10165000310987FD3395220F331F220F331F2617C1
:1016600037070CF09B01C9010297092E000CAA0B49
:10167000BB0B880F991FAA1FBB1F880F991FAA1F9A
:10168000BB1F8C019D01000F111F221F331F000F74
:10169000111F221F331FB5FD19C0689412F835952C
:1016A0002795179507951694D1F75FB7F894842F6F
:1016B00090E0FC01EE0FFF1FE80FF91FE45BFE4F07
:1016C000128301835FBF1F910F910895095F1F4F20
:1016D0002F4F3F4FE2CFAF92BF92CF92DF92EF9268
:1016E000FF920F931F93CF93DF93EC01603282E060
:1016F00078070CF041C0772334F0653B71052CF07E
:1017000064EB70E002C070E060E08A8128E532E0BE
:10171000281B310987FD3395220F331F220F331FFA
:1017200089810F2EF8E8AF2EB12CF02DA81AB10840
:1017300087FDB394AA0CBB1CAA0CBB1C0B2C000C81
:10174000CC08DD08072E000C880B990B8901330F9C
:10175000220B330B3F932F931F930F9314EBE12E28
:10176000F12C00E010E020E030E0A9010E948902A5
:101770000F900F900F900F90CE010E940F0BDF91F2
:10178000CF911F910F91FF90EF90DF90CF90BF907E
:10179000AF900895FC0190914B019C3018F08FEFB1
:1017A0008083089581E0890F80934B019083892F76
:1017B00090E0FC01EE0FFF1FE80FF91FE45BFE4F06
:1017C00088EB9BE09283818308950F931F93CF93BF
:1017D000DF93019729F0DF91CF911F910F91089529
:1017E0006F3F7F4FC1F7C6E0D0E00CE813E0DD2388
:1017F0003CF0C8010E94CA0B0D5F1F4F2197F7CF25
:101800008BE893E00E94320888E090E0ECE4F3E09B
:1018100099230CF320E2268337960197F9CFAC0188
:1018200090E09C30B8F49A01220F331F240F351F2B
:10183000220F331F220F331F290F311DF901EE0F25
:10184000FF1FE20FF31FE45BFE4F808186FD04C0A3
:101850009F5FE7CF80E0089581E00895DC01EC917F
:101860008E2F90E0FC01EE0FFF1FE80FF91FE45BE5
:10187000FE4F80818F7B80830895892B89F410929D
:10188000800082E080938100109285001092840095
:1018900086B3826086BBEFE6F0E080818260808361
:1018A0000895DF92EF92FF920F931F93CF93DF93F0
:1018B000EC01D62E7A01890188818C3048F088812C
:1018C000DF91CF911F910F91FF90EF90DF900895DE
:1018D00061E08D2D0E941B01E8818E2F90E0FC01BC
:1018E000EE0FFF1FE80FF91FE45BFE4F8D2D8F7386
:1018F000D0809D2D907CD92ED82AD08220E232E053
:101900002E193F09C90199236CF1959587959595F5
:101910008795898320E639E0201B310BC901992383
:101920001CF195958795959587958A8308818BEA13
:10193000089F012D112406950695069510E0C80113
:101940000E940F0C882391F0E8818E2F90E0FC011B
:10195000EE0FFF1FE80FF91FE45BFE4F80818064EC
:101960008083ADCF0396D1CF0396DBCFC8010E9411
:101970003D0CEACF20E639E040E252E00E94510CF3
:10198000089580913902282F30E030930702209388
:101990000602A901425051094730510508F09DC087
:1019A000E0913A02E83008F098C0F0E0E652F34FD8
:1019B0000C94F130E20C110D300D3C0D4A0D200D50
:1019C000580DF60C61E00E941B01609106027091B7
:1019D00007029B0122503109C901880F991F820F0C
:1019E000931F84579C4F0E94BA0C089561E00E9497
:1019F0001B016091060270910702FB013297209152
:101A00000402309105024091020250910302CF017D
:101A1000880F991F8E0F9F1F84579C4F0E94510C57
:101A200008952250310960913B0270E0C901880F8E
:101A3000991F820F931F84579C4F0E946B0B089530
:101A4000225031096091040270910502C901880F8A
:101A5000991F820F931F84579C4F0E940F0B08956C
:101A600022503109C901880F991F820F931F845793
:101A70009C4F0E942E0C089522503109C901880FF5
:101A8000991F820F931F84579C4F0E948D0A809349
:101A90002402089522503109C901880F991F820F2D
:101AA000931F84579C4F0E94C00A8093240208957C
:101AB00022503109C901880F991F820F931F845743
:101AC0009C4F0E949D0A9C01992344F0309324026C
:101AD0009078992334F080932502089521503F4F48
:101AE000F5CF01979F6F0196F6CFE1E8F0E02081F6
:101AF000DC0112968C91282B208308950F931F935D
:101B0000FC01A0E4B6E09A01AB010E9485306115AA
:101B1000710521E0820791050CF444C08B019C0102
:101B2000689412F835952795179507951694D1F76F
:101B30000115110541E0240731050CF44CC08B015F
:101B40009C01689415F83595279517950795169477
:101B5000D1F70115110541E0240731050CF43FC010
:101B6000072F182F292F332727FD3A950115110527
:101B700041E024073105BCF1052E5AE09595879583
:101B8000779567955A95D1F7502D6115710521E02C
:101B90008207910564F185E082836FEF7FEF80E03B
:101BA00090E002C021E022832FB72383F894718351
:101BB0006083709387006093860083818FBFA1E864
:101BC000B0E08C91887F8C938C919281892B8C933F
:101BD0001F910F91089582E08283B801E5CF83E0E1
:101BE0008283B801E1CF84E08283B801DDCF25E0B4
:101BF0002283DACF0F931F93CF93DF93EC018B01F6
:101C0000121613061406150624F4BA01A9010E943F
:101C10007E0D1D830C8381E080936F00CE010E94B6
:101C2000750DDF91CF911F910F91089526E040E04F
:101C300056E960E070E084E895E00E947F036AE086
:101C400070E084E095E00E94B50564E57AE084E008
:101C500095E00E9417056FE979E084E095E00E9425
:101C600012058AB180618AB98BB18F7E8BB990E001
:101C700080E08930910534F4FC01EA58FE4F8083FE
:101C80000196F7CF28EE33E040E050E065ED78E0D4
:101C900080E791E00E94FA0D0895FC01908181E0B7
:101CA000911101C080E008956F70E62FF0E0E25FCF
:101CB000FE4F8081089582E390E00E941302089510
:101CC000EF92FF920F931F93CF93DF93EC01E62ED9
:101CD000F12C12C061E089810E941B01CE010E949B
:101CE0005B0E60E088810E941B01CE010E945B0EAA
:101CF00015950795E02EF39487E08F1580F061E04D
:101D000088810E941B01CE010E945B0E0E2D10E007
:101D1000E0FEE0CF60E089810E941B01DFCF61E03F
:101D200088810E941B0160E089810E941B01CE0115
:101D30000E945B0E60E088810E941B01CE010E9420
:101D40005B0E89810E94BB00182F8823A9F0CE0169
:101D50000E945B0E61E088810E941B01CE010E94FF
:101D60005B0E81E0111101C080E0DF91CF911F91E6
:101D70000F91FF90EF90089561E089810E941B010F
:101D8000E6CFCF93DF93EC0161E089810E941B01D4
:101D9000CE010E945B0E60E088810E941B01CE0193
:101DA0000E945B0E60E089810E941B01CE010E94AF
:101DB0005B0EDF91CF910895CF93DF93EC0161E04B
:101DC00089810E941B01CE010E945B0EDF91CF91A1
:101DD0000895EF92FF920F931F93CF93DF938C019F
:101DE0007B01D42FC22F0E94DC0E60E4C8010E9448
:101DF000600EC8010E94C10EC8010E94DC0E6C2F4B
:101E000063706054C8010E94600EC0E0CD1748F4B2
:101E1000F701EC0FF11D6081C8010E94600ECF5FD9
:101E2000F5CFC8010E94C10EC8010E94DC0EF80166
:101E300062816058C8010E94600EC8010E94C10EF4
:101E4000DF91CF911F910F91FF90EF9008954F92E6
:101E50005F926F927F928F929F92AF92BF92CF923A
:101E6000DF92EF92FF920F931F93CF93DF9300D0F7
:101E700000D0CDB7DEB74C015B01542EF22E10E03E
:101E80004424439420C0C4010E94540EE1E0F0E0D9
:101E9000EC0FFD1FEC0DFD1D808310C0C4010E94DE
:101EA000540EE1E0F0E0EC0FFD1FEC0DFD1D808312
:101EB000C501B3010E94DD305C01412CEE2011F020
:101EC000113031F11F5F14306CF5C12E012E000C62
:101ED000DD08E3E0F0E0EC19FD09EE0FFF1FEA5F1B
:101EE000FE4F60807180C501B3010E94DD30611535
:101EF0007105A1F65110C7CF442029F2133019F211
:101F0000E1E0F0E0EC0FFD1FEC0DFD1D1082D6CFDF
:101F1000E1E0F0E0EC0FFD1FEC0DFD1D808180681D
:101F20008083D0CF64E070E06F19710981E090E0A8
:101F30008C0F9D1F680F791F202F4F2DC4010E9409
:101F4000E90E0F900F900F900F90DF91CF911F919E
:101F50000F91FF90EF90DF90CF90BF90AF909F9048
:101F60008F907F906F905F904F900895683008F049
:101F700067E0685FFC0162830895CF93DF93EC0113
:101F8000862F6883498360E00E941B0160E089819D
:101F90000E941B0160E088810E94E80060E0898166
:101FA0000E94E800DF91CF910895CF92DF92EF92E7
:101FB000FF92CF93DF93EC0164567109072E000C5A
:101FC000880B990B0E945D326B017C0120E030E0B0
:101FD00040E45FE30E940D3320E030E048E452E447
:101FE0000E94B3310E942532C617D70714F120E0B2
:101FF00030E040EA5FE3C701B6010E940D3320E004
:1020000030E048E452E40E94B33120E030E040E8A0
:102010005FE30E9442310E9425326C177D075CF419
:1020200080E090E0DF91CF91FF90EF90DF90CF9034
:10203000089580E0F6CF81E0F4CFCF92DF92EF9267
:10204000FF92CF93DF93EC016C597F4F072E000C6A
:10205000880B990B0E945D326B017C0120E030E01F
:1020600040E45FE30E940D3320E030E048E452E4B6
:102070000E94B3310E942532C617D70714F120E021
:1020800030E040EA5FE3C701B6010E940D3320E073
:1020900030E048E452E40E94B33120E030E040E810
:1020A0005FE30E9442310E9425326C177D075CF489
:1020B00080E090E0DF91CF91FF90EF90DF90CF90A4
:1020C000089580E0F6CF81E0F4CF8F929F92AF9297
:1020D000BF92CF92DF92EF92FF920F931F93CF9315
:1020E000DF938091A503863408F4A1C0EB01EA8553
:1020F000FB85828193816EEE72E00E941D10892B18
:1021000009F497C0EA85FB85848195816EEE72E0C3
:102110000E94D50F892B09F48EC0EA85FB85868144
:10212000978162E27BE00E941D10892B09F485C033
:10213000EA85FB858085918562E27BE00E94D50F70
:10214000892B09F47CC0D12CC12C05E010E0812C36
:10215000912C540180E2C816D1040CF03FC0EA85EE
:10216000FB8578018FEFE81AF80AC801880F991FDC
:10217000E80FF91F808191816EEE72E00E941D10C0
:10218000892B09F45EC0EA85FB85EE0CFF1CEE0D81
:10219000FF1D8081918166E678E00E94D50F892B32
:1021A00061F0880C991CAA1CBB1C689480F80E5F17
:1021B0001F4FEFEFCE1ADE0ACDCFEA85FB85EE0D7D
:1021C000FF1D808191816EEE72E00E94D50F892BF8
:1021D000D1F1880C991CAA1CBB1CE9CF8A859B8570
:1021E000000F111F080F191FF801808191816EEEF9
:1021F00072E00E941D10892B41F180E290E09987E6
:1022000088878C829D82AE82BF8288E090E099832D
:10221000888381E0DF91CF911F910F91FF90EF9024
:10222000DF90CF90BF90AF909F908F90089580E007
:10223000F1CF80E0EFCF80E0EDCF80E0EBCF80E02A
:10224000E9CF80E0E7CF80E0E5CF80E0E3CFAF9259
:10225000BF92CF92DF92EF92FF920F931F93CF9393
:10226000DF93EB018091A5038A3108F48BC0EA85E6
:10227000FB8580819181843F9140C8F4198618863E
:102280008FEF9FEFDC018C839D83AE83BF838BE058
:1022900090E09983888381E0DF91CF911F910F9126
:1022A000FF90EF90DF90CF90BF90AF900895828124
:1022B000938160E679E00E941D10892B09F464C0C7
:1022C00002E010E0C12CD12C760158018FEFA81A42
:1022D000B80A8091A5038A151B04D1F1CCF1EA85D7
:1022E000FB85C801880F991FE80FF91F8081918134
:1022F00068E572E00E94D50F892B49F1EA85FB85DC
:10230000AA0CBB1CEA0DFB1D8081918160EB74E07F
:102310000E941D10892B49F0CC0CDD1CEE1CFF1C0B
:102320006894C0F80E5F1F4FD0CF8A859B85A80E9A
:10233000B91EF5018081918168E572E00E941D104F
:10234000892B21F1CC0CDD1CEE1CFF1CEBCF850191
:1023500001501109C80199230CF4019695958795B0
:10236000998788870C9724F41986188680E094CF83
:10237000CC82DD82EE82FF8284E090E099838883C4
:1023800081E08ACF80E088CF80E086CF80E084CF74
:10239000AF92BF92CF92DF92EF92FF920F931F9373
:1023A000CF93DF93EB018091A5038A3108F496C0A7
:1023B000EA85FB858081918180329340C8F419863B
:1023C00018868FEF9FEFDC018C839D83AE83BF83E4
:1023D0008BE090E09983888381E0DF91CF911F911A
:1023E0000F91FF90EF90DF90CF90BF90AF90089546
:1023F000828193816CEA7DE00E941D10892B09F493
:102400006FC0EA85FB85848195816CEA7DE00E943E
:102410001D10892B09F466C003E010E0C12CD12CFB
:10242000760158018FEFA81AB80A8091A5038A1582
:102430001B04D1F1CCF1EA85FB85C801880F991FF7
:10244000E80FF91F8081918166EB73E00E94D50F40
:10245000892B49F1EA85FB85AA0CBB1CEA0DFB1D03
:102460008081918160E679E00E941D10892B49F0FE
:10247000CC0CDD1CEE1CFF1C6894C0F80E5F1F4FD7
:10248000D0CF8A859B85A80EB91EF50180819181E8
:102490006CEB72E00E941D10892B31F1CC0CDD1C1D
:1024A000EE1CFF1CEBCF850101501109C8019923D7
:1024B0000CF4019695958795998788870C9724F455
:1024C0001986188680E089CFCC82DD82EE82FF8279
:1024D0008BE090E09983888381E07FCF80E07DCF9F
:1024E00080E07BCF80E079CF80E077CF8F929F92A2
:1024F000AF92BF92CF92DF92EF92FF920F931F9312
:10250000CF93DF93EB01EA85FB858281938168E8B5
:1025100073E10E941D10892B09F49CC08091A503D2
:10252000843079F5EA85FB85848195816AEC78E0D1
:102530000E94D50F892B29F1EA85FB858681978139
:1025400060E372E00E941D10892BD9F0198618866D
:102550008FEF9FEFDC018C839D83AE83BF8387E089
:1025600090E09983888381E0DF91CF911F910F9153
:10257000FF90EF90DF90CF90BF90AF909F908F90A3
:1025800008958091A503843408F466C0EA85FB852C
:102590008481958168E873E10E94D50F892B09F445
:1025A0005DC0D12CC12C03E010E0812C912C540192
:1025B00080E2C816D1040CF03FC0EA85FB857801A3
:1025C0008FEFE81AF80AC801880F991FE80FF91F62
:1025D0008081918160E372E00E941D10892B09F4D3
:1025E0003FC0EA85FB85EE0CFF1CEE0DFF1D8081D0
:1025F000918160E476E00E94D50F892B61F0880C10
:10260000991CAA1CBB1C689480F80E5F1F4F8FEFAB
:10261000C81AD80ACDCFEA85FB85EE0DFF1D808153
:10262000918160E372E00E94D50F892BD9F0880C6C
:10263000991CAA1CBB1CE9CF80E290E0998788878F
:102640008C829D82AE82BF8287E090E099838883EE
:1026500081E08ACF80E088CF80E086CF80E084CFA1
:1026600080E082CF80E080CF4F925F926F927F9226
:102670008F929F92AF92BF92CF92DF92EF92FF9292
:102680000F931F93CF93DF93EB01EA85FB85828144
:1026900093816EEA7DE00E941D10892B09F4AAC087
:1026A000EA85FB858481958166ED76E00E941D10A8
:1026B000892B09F4A1C0B12CA12C0F2EF3E0EF2E31
:1026C000F12CF02D812C912C00E010E0612C712C6C
:1026D000412C512C80E3A816B1040CF060C0EA85AF
:1026E000FB8567018FEFC81AD80AC701880F991FA9
:1026F000E80FF91F8081918166EF71E00E941D1043
:10270000892B09F47BC0EA85FB85CC0CDD1CEC0D24
:10271000FD1D808191816CED74E00E94D50F892BA5
:10272000E1F0282D392D402F512F662D772D842D46
:10273000952D01E00E94F730822E689480F8932E48
:10274000042F152F662E772E482E592EF2E0EF0E0D
:10275000F11C8FEFA81AB80ABDCF8A859B85C80ED9
:10276000D91EF6018081918160E971E00E94D50F48
:10277000892B09F445C0282D392D402F512F662D66
:10278000772D842D952D01E00E94F730822E932E17
:10279000042F152F662E772E482E592ED7CF8C82D8
:1027A0009D820E831F83282D392D402F512F662D9A
:1027B000772D842D952D00E20E9412312A833B83D0
:1027C00085E090E09983888380E390E0998788870B
:1027D00081E0DF91CF911F910F91FF90EF90DF90FB
:1027E000CF90BF90AF909F908F907F906F905F90B1
:1027F0004F90089580E0EDCF80E0EBCF80E0E9CF0F
:1028000080E0E7CF8F929F92AF92BF92CF92DF92FC
:10281000EF92FF920F931F93CF93DF93EB01EA8523
:10282000FB858281938168E273E20E941D10892BEF
:1028300009F49DC08091A503843079F5EA85FB8574
:10284000848195816AEC78E00E94D50F892B29F16B
:10285000EA85FB858681978160E372E00E941D1006
:10286000892BD9F0198618868FEF9FEFDC018C83B6
:102870009D83AE83BF8383E090E09983888381E06A
:10288000DF91CF911F910F91FF90EF90DF90CF904C
:10289000BF90AF909F908F9008958091A50384344E
:1028A00008F467C0EA85FB858481958164E971E15C
:1028B0000E94D50F892B09F45EC0B12CA12C03E036
:1028C00010E0C12CD12C760180E2A816B1040CF0E6
:1028D00040C0EA85FB85C801880F991FE80FF91FE2
:1028E0008081918160E372E00E941D10892B09F4C0
:1028F00044C0EA85FB8548018FEF881A980A880C46
:10290000991CE80DF91D808191816AE976E00E94A9
:10291000D50F892B61F0CC0CDD1CEE1CFF1C6894DC
:10292000C0F80E5F1F4FFFEFAF1ABF0ACDCF8A85E9
:102930009B85880E991EF4018081918160E372E08D
:102940000E94D50F892BD9F0CC0CDD1CEE1CFF1C8E
:10295000E8CF80E290E099878887CC82DD82EE82A2
:10296000FF8283E090E09983888381E089CF80E0D3
:1029700087CF80E085CF80E083CF80E081CF80E08B
:102980007FCF8F929F92AF92BF92CF92DF92EF92C2
:10299000FF920F931F93CF93DF938091A503823211
:1029A00008F47AC0EB01EA85FB85828193816EE5AC
:1029B00071E00E941D10892B09F470C002E010E044
:1029C000C12CD12C760158018FEFA81AB80A80913A
:1029D000A5038A151B04D1F1CCF1EA85FB854801DA
:1029E000880C991CE80DF91D808191816EE977E0D2
:1029F0000E941D10892BC1F0CC0CDD1CEE1CFF1CAD
:102A00006894C0F8EA85FB85C501880F991FE80F17
:102A1000F91F808191816EE571E00E94D50F892BAD
:102A2000A1F00E5F1F4FCFCFEA85FB85E80DF91DA2
:102A3000808191816EEE72E00E941D10892B81F1E0
:102A4000CC0CDD1CEE1CFF1CDDCF850101501109F3
:102A5000C80199230CF401969595879599878887E5
:102A6000409784F41986188680E0DF91CF911F91FA
:102A70000F91FF90EF90DF90CF90BF90AF909F901D
:102A80008F900895CC82DD82EE82FF828CE090E010
:102A90009983888381E0E9CF80E0E7CF80E0E5CFCC
:102AA00080E0E3CF8F929F92AF92BF92CF92DF925E
:102AB000EF92FF920F931F93CF93DF938091A50323
:102AC000893308F48BC0EB01EA85FB858281938111
:102AD00060E47FE10E941D10892B09F481C0EA8522
:102AE000FB858481958160EA7FE00E94D50F892B68
:102AF00009F478C0D12CC12C03E010E0812C912C7A
:102B000054018CE1C816D1040CF03FC0EA85FB8566
:102B100078018FEFE81AF80AC801880F991FE80FAB
:102B2000F91F8081918168E572E00E941D10892B58
:102B300009F45AC0EA85FB85EE0CFF1CEE0DFF1D63
:102B40008081918160E476E00E94D50F892B61F04D
:102B5000880C991CAA1CBB1C689480F80E5F1F4F40
:102B6000EFEFCE1ADE0ACDCFEA85FB85EE0DFF1D15
:102B70008081918166E272E00E94D50F892BB1F1CC
:102B8000880C991CAA1CBB1CE9CF8A859B85000F69
:102B9000111F080F191FF8018081918168E572E00B
:102BA0000E941D10892B21F18CE190E09987888784
:102BB0008C829D82AE82BF828AE090E09983888376
:102BC00081E0DF91CF911F910F91FF90EF90DF9007
:102BD000CF90BF90AF909F908F90089580E0F1CFFD
:102BE00080E0EFCF80E0EDCF80E0EBCF80E0E9CF79
:102BF00080E0E7CF8F929F92AF92BF92CF92DF9209
:102C0000EF92FF920F931F93CF93DF93EB0180918D
:102C1000A5038232C9F5EA85FB858281938168E547
:102C200072E00E941D10892B79F12A853B858091E5
:102C3000A50390E081509048880F991F820F931F41
:102C4000FC018081918168E572E00E941D10892B52
:102C5000D9F0198618868FEF9FEFDC018C839D8356
:102C6000AE83BF8386E090E09983888381E0DF9123
:102C7000CF911F910F91FF90EF90DF90CF90BF9079
:102C8000AF909F908F900895EA85FB858281938114
:102C900060E47FE10E941D10892B09F478C08091C7
:102CA000A503813208F475C0EA85FB85848195818E
:102CB00060EA7FE00E94D50F892B09F46CC0D12C0B
:102CC000C12C03E010E0812C912C5401F0E1CF16CF
:102CD000D1040CF03FC0EA85FB8578018FEFE81A3C
:102CE000F80AC801880F991FE80FF91F80819181A8
:102CF00068E572E00E941D10892B09F44EC0EA8538
:102D0000FB85EE0CFF1CEE0DFF1D8081918160E4C0
:102D100076E00E94D50F892B61F0880C991CAA1CC3
:102D2000BB1C689480F80E5F1F4FEFEFCE1ADE0ACF
:102D3000CDCFEA85FB85EE0DFF1D8081918166E296
:102D400072E00E94D50F892B51F1880C991CAA1CA6
:102D5000BB1CE9CF8A859B85000F111F080F191F27
:102D6000F8018081918168E572E00E941D10892B35
:102D7000C1F080E190E0998788878C829D82AE8245
:102D8000BF8286E090E09983888381E070CF80E005
:102D90006ECF80E06CCF80E06ACF80E068CF80E0CB
:102DA00066CF80E064CF8F929F92AF92BF92CF9216
:102DB000DF92EF92FF920F931F93CF93DF93809157
:102DC000A503803209F07CC0EB01EA85FB85828196
:102DD00093816CE271E00E941D10892B09F472C08E
:102DE000EA85FB85848195816EEE72E00E94D50FA5
:102DF000892B09F469C0D12CC12C03E010E0812C8F
:102E0000912C54018EE0C816D1040CF03FC0EA8525
:102E1000FB8578018FEFE81AF80AC801880F991F1F
:102E2000E80FF91F808191816CE271E00E941D1012
:102E3000892B09F44BC0EA85FB85EE0CFF1CEE0DD7
:102E4000FF1D8081918168E077E00E94D50F892B7A
:102E500061F0880C991CAA1CBB1C689480F80E5F5A
:102E60001F4F8FEFC81AD80ACDCFEA85FB85EE0D2C
:102E7000FF1D808191816EEE72E00E94D50F892B3B
:102E800039F1880C991CAA1CBB1CE9CF8EE090E09C
:102E9000998788878C829D82AE82BF828FE090E086
:102EA0009983888381E0DF91CF911F910F91FF90EB
:102EB000EF90DF90CF90BF90AF909F908F9008954C
:102EC00080E0F1CF80E0EFCF80E0EDCF80E0EBCF8E
:102ED00080E0E9CFAF92BF92CF92DF92EF92FF9264
:102EE0000F931F93CF93DF938091A503883508F448
:102EF00080C0EB01EA85FB858281938160E672E206
:102F00000E941D10892B09F476C0EA85FB85848117
:102F1000958164E971E10E94D50F892B09F46DC098
:102F20000DE110E0F12CE12C8091A5038450990B68
:102F300008171907D4F5EA85FB85C801880F991F82
:102F4000E80FF91F8081918164EF71E00E941D10EC
:102F5000892B09F454C068018FEFC81AD80AEA8592
:102F6000FB855601AA0CBB1CEA0DFB1D80819181DB
:102F700068E572E00E94D50F892B39F0EE0CFF1C3A
:102F80006894E0F80E5F1F4FCFCFEA85FB85EA0D0E
:102F9000FB1D8081918164EA76E00E94D50F892B28
:102FA00019F0EE0CFF1CEECF860101501109C8018B
:102FB00099230CF4019695958795998788878A9728
:102FC00004F1C701FF0CAA0BBB0B8C839D83AE835E
:102FD000BF8389E090E09983888381E0DF91CF917E
:102FE0001F910F91FF90EF90DF90CF90BF90AF9027
:102FF000089580E0F3CF80E0F1CF80E0EFCF80E074
:10300000EDCF80E0EBCFCF92DF92EF92FF92CF93A4
:10301000DF93EC01072E000C880B990B0E945D32A8
:103020006B017C0120E030E040E45FE30E940D335F
:1030300020E030E048E452E40E94B3310E9425329F
:10304000C617D70714F120E030E040EA5FE3C7017C
:10305000B6010E940D3320E030E048E452E40E94C3
:10306000B33120E030E040E85FE30E9442310E944B
:1030700025326C177D075CF480E090E0DF91CF9102
:10308000FF90EF90DF90CF90089580E0F6CF81E041
:10309000F4CF8F929F92AF92BF92CF92DF92EF9236
:1030A000FF920F931F93CF93DF93DA018D919C9141
:1030B000DB011C96ED91FC911D978E179F070CF07C
:1030C00069C01A96ED91FC91BC01660F771FE60F5F
:1030D000F71FA080B180C1E0BC016170772780FD3F
:1030E000C0E0D0E0672B09F448C00F2EF4E6CF2EE5
:1030F000D12CF02D79014A01B601600F711FC50175
:103100000E940318892B09F03FC0B801660F771F92
:103110006C0D7D1DC5010E940318892BC1F5B801F6
:10312000660F771F600F711F6C0D7D1DC5010E941A
:103130000318892B91F123E030E0F7018081918120
:10314000019691838083821793074CF0118210823D
:10315000D4018D919C91119701968D939C93CE01F2
:10316000DF91CF911F910F91FF90EF90DF90CF9063
:10317000BF90AF909F908F9008950F2EFCE9CF2EB7
:10318000DD24DA94F02DB6CF21E030E0D6CF22E076
:1031900030E0D3CFC1E0D0E0E2CFCFEFDFEFDFCF41
:1031A0002F923F924F925F926F927F928F929F9257
:1031B000AF92BF92CF92DF92EF92FF920F931F9345
:1031C000CF93DF9300D000D0CDB7DEB71A8219823B
:1031D000DB011C962D913C911D97121613060CF0E5
:1031E000CEC07B016C011A96ED91FC9182E090E0DB
:1031F0009C838B83828193816AE67AE00E941D1012
:10320000892B09F4BEC0F7012285338582E090E066
:10321000AC014F5F5F4F5C834B83880F991F820F18
:10322000931FDC018D919C9169E773E00E94D50F9B
:10323000892B09F4A8C00CEB11E09E012F5F3F4FD2
:10324000AE014D5F5F4FB701C6010E9449185C0196
:10325000892B09F09AC09E012F5F3F4FAE014D5F51
:103260005F4FB701C6010E944918019709F08FC04E
:10327000212C312C2101F701248535858B819C81FE
:10328000821793070CF059C00CEB11E09E012F5FE1
:103290003F4FAE014D5F5F4FB701C6010E94491815
:1032A0003C01F3E0AF16B10471F49E012F5F3F4F74
:1032B000AE014D5F5F4FB701C6010E9449188615E8
:1032C000970509F066C00CEB11E09E012F5F3F4FA0
:1032D000AE014D5F5F4FB701C6010E9449184C0116
:1032E00083E0A816B10471F49E012F5F3F4FAE0139
:1032F0004D5F5F4FB701C6010E94491888159905B7
:1033000009F049C06114710471F4A1E08A169104B6
:1033100051F4220C331C441C551C689420F8EFEF28
:10332000AE1ABE0AA8CF6A946728B9F58928B9F5FC
:10333000220C331C441C551CF2CFB186A08624827B
:1033400035824682578282E090E09183808381E0DB
:103350000F900F900F900F90DF91CF911F910F91D1
:10336000FF90EF90DF90CF90BF90AF909F908F90A5
:103370007F906F905F904F903F902F90089580E0E6
:10338000E7CF80E0E5CF80E0E3CF80E0E1CF80E0F1
:10339000DFCF80E0DDCF80E0DBCF80E0D9CF80E001
:1033A000D7CF4F925F926F927F928F929F92AF9200
:1033B000BF92CF92DF92EF92FF920F931F93CF9322
:1033C000DF9300D000D0CDB7DEB71A82198221E09A
:1033D00030E03C832B832091A5032D3008F485C079
:1033E0007B016C0109E713E09E012F5F3F4FAE01A7
:1033F0004D5F5F4F0E944918892B09F078C09E01EC
:103400002F5F3F4FAE014D5F5F4FB701C6010E9476
:103410004918019709F06DC09E012F5F3F4FAE0123
:103420004D5F5F4FB701C6010E9449185C01892BAF
:1034300009F061C0412C512C32012091A5038B81F0
:103440009C812817190689F184F109E713E09E0190
:103450002F5F3F4FAE014D5F5F4FB701C6010E9426
:1034600049184C019E012F5F3F4FAE014D5F5F4FEA
:10347000B701C6010E94491821E08216910461F447
:10348000009751F4440C551C661C771C689440F856
:103490008FEFA81AB80AD1CF892879F5019779F565
:1034A000440C551C661C771CF3CFF701B186A0862F
:1034B000448255826682778281E090E091838083A6
:1034C0000F900F900F900F90DF91CF911F910F9160
:1034D000FF90EF90DF90CF90BF90AF909F908F9034
:1034E0007F906F905F904F90089580E0E9CF80E0EB
:1034F000E7CF80E0E5CF80E0E3CF80E0E1CF80E080
:10350000DFCF0F931F93CF93DF93EB0128EA33E0D4
:103510003B872A87E1EAF3E0248130E03D872C876E
:103520002091720430E03F872E872081253009F0FA
:103530005FC08C010E94021481115DC0BE01C801F0
:103540000E94271181115AC0BE01C8010E94C811F2
:10355000811157C0BE01C8010E94C114811154C01D
:10356000BE01C8010E94D119811151C0BE01C8011C
:103570000E94D01881114EC0BE01C8010E943413B0
:1035800081114BC0BE01C8010E945215811148C073
:10359000BE01C8010E94FA15811145C0BE01C801D3
:1035A0000E947612811142C0BE01C8010E946510BE
:1035B00081113FC0BE01C8010E946A1781113CC041
:1035C000BE01C8010E94D316811139C0BE01C801D5
:1035D0000E94A107672B682B692BA1F5C8010E94E7
:1035E000150890E080E0DF91CF911F910F91089531
:1035F00090E080E0F8CF81E090E0F5CF81E090E0CE
:10360000F2CF81E090E0EFCF81E090E0ECCF81E07D
:1036100090E0E9CF81E090E0E6CF81E090E0E3CF79
:1036200081E090E0E0CF81E090E0DDCF81E090E0CC
:10363000DACF81E090E0D7CF81E090E0D4CF81E095
:1036400090E0D1CF81E090E0CECFFC0120813181AC
:1036500081E0232B09F480E00895FC0185819681A7
:103660000895EF92FF920F931F93CF937C018B01EC
:10367000C0E0C031C0F4612F661F6627661FF701E6
:1036800082810E94E800F70180810E94BB0061E016
:10369000892B09F060E0F70180810E94E800000FAB
:1036A000111FCF5FE6CFCF911F910F91FF90EF9049
:1036B00008950F931F93CF938C0160E0FC018281EA
:1036C0000E94E8008AE090E00E941302C0E0C4304B
:1036D00060F461E0F80182810E94E80060E0F80196
:1036E00082810E94E800CF5FF2CFCF911F910F91AE
:1036F0000895EF92FF921F93CF93DF93EC017B012C
:10370000CB0193709E838D8370E060E0CE010E94B8
:10371000311B10E01A3040F58C81882399F0C701E5
:10372000012E02C0880F991F0A94E2F7BC01662798
:10373000727091FF02C06FEF70E0CE010E94311BEA
:103740001F5FE8CFC701012E02C0969587950A94A6
:10375000E2F7BC016170772780FF02C06FEF70E075
:10376000CE010E94311BECCF70E060E0CE010E94E0
:10377000311B70E060E0CE010E94311BCE010E943F
:10378000591BDF91CF911F91FF90EF900895662311
:10379000B9F06B3008F06AE0615021E030E0A90137
:1037A00002C0440F551F6A95E2F7BA01FC0125815A
:1037B000368162277327768365830E94791B08957B
:1037C00061E0EACF6623D1F06B3008F06AE0615027
:1037D0004423B1F0FC012581368141E050E0FA013B
:1037E00002C0EE0FFF1F6A95E2F7BF01622B732B39
:1037F000FC01768365830E94791B089561E0E7CF21
:10380000FC012581368141E050E0FA0102C0EE0F53
:10381000FF1F6A95E2F7BF016095709562237323DD
:10382000E7CFFC01962F6B3008F09AE06FEF7FEF47
:1038300002C0660F771F9A95E2F7609570957683C0
:103840006583CF010E94791B0895FC016483658123
:1038500076810E94791B0895CF93DF93EC01862F28
:1038600070E07983688350E05B834A832C831E82F7
:103870001D8261E00E941B0161E08A810E941B01A0
:10388000DF91CF910895CF92DF92EF92FF920F9345
:103890001F93CF93DF938C0161E0FC0186810E942E
:1038A000E8006AEF70E080E090E00E9444020E942D
:1038B0007C02F801C184D284E384F4846C157D0514
:1038C0008E059F0520F41186128613861486F80152
:1038D000258521110EC0C184D284E384F4846C193F
:1038E0007D098E099F09603D77408105910508F4A7
:1038F0007DC0F80115860E947C02F80161877287FD
:10390000838794871482138212821182108261E06D
:1039100086810E941B0160E0F80186810E94E80018
:1039200064E170E080E090E00E944402F89461E07D
:10393000F80186810E94E80088E290E00E9413026C
:1039400060E0F80186810E941B01F12CE12CD1E09E
:1039500022C0F80186810E94BB00D82FCF3F71F1B1
:10396000F3E0FF15B8F4F0FC15C08E2D8695869512
:10397000869590E0F801E80FF91F2081220F20833F
:10398000F80130853C1728F4800F911F2160FC015D
:103990002083E394F394F4E5FF1580F0C0E0F80190
:1039A00086810E94BB00D817190699F6CF5F81E087
:1039B00090E00E941302CF3F91F7CBCF7894F7E2CB
:1039C000FE15B0F4F801448120818181280F33274E
:1039D000331F8281280F311D8381820F932F911D08
:1039E00099274817190671F080E003C081E001C0F3
:1039F00080E0DF91CF911F910F91FF90EF90DF90CA
:103A0000CF90089581E0F5CFCB01BA0120E030E0FE
:103A100040E151E40E940D3320E030E040EA50E400
:103A20000E94B33120E030E040E052E40E94423195
:103A30000895CF92DF92EF92FF920F931F93CF934F
:103A4000DF93EC01162F0E94431C882309F491C0D8
:103A50008F818B3009F45DC008F47AC085518230C3
:103A600008F076C00A81602F6F7770E090E080E008
:103A70000E945D3220E030E040E853E40E940D33C4
:103A80006B017C016B8170E090E080E00E945D3210
:103A9000A70196010E94423120E030E040E251E46B
:103AA0000E94B3316E877F87888B998B00230CF43B
:103AB0005AC0112359F04E855F8568897989CE01F6
:103AC0000E94041D6E877F87888B998B688170E0C8
:103AD00090E080E00E945B3220E030E040E853E478
:103AE0000E940D336B017C01698170E090E080E001
:103AF0000E945D32A70196010E94423120E030E031
:103B000040E251E40E94B3316A8B7B8B8C8B9D8B9E
:103B10001FC06A8170E090E080E00E945B326E8797
:103B20007F87888B998B112349F0AB01BC01CE01B3
:103B30000E94041D6E877F87888B998B688170E057
:103B400090E080E00E945B326A8B7B8B8C8B9D8B3C
:103B5000CE010E96DF91CF911F910F91FF90EF90C4
:103B6000DF90CF90089590586E877F87888B998BD0
:103B7000A0CF90E080E0EECFCF93DF93EC01862FD3
:103B80006E834F83288791E09D8760E00E941B0130
:103B900061E08E810E94E80019861A861B861C86C9
:103BA000DF91CF910895FC0182810895CF93DF9337
:103BB000EC0160E088810E94E80084E190E00E94CE
:103BC000130261E088810E94E80084E190E00E9495
:103BD0001302DF91CF9108950F931F93CF93DF933B
:103BE0008C01D62FC0E00AC061E0F80181810E94FB
:103BF000E800C8010E94D61DDD0FCF5FC83040F439
:103C0000DD2394F360E0F80181810E94E800F1CFA8
:103C1000DF91CF911F910F910895FF920F931F9302
:103C2000CF93DF93EC01162F042FF22E222314F1F1
:103C300060EEF6FE606100230CF0686006FF6460D1
:103C400011230CF0626016FF6160CE010E94EC1D32
:103C50006F2DCE010E94EC1D602FCE010E94EC1D45
:103C6000612FCE010E94EC1DDF91CF911F910F912A
:103C7000FF90089560ECDDCFDF92EF92FF920F93FB
:103C80001F93CF93DF93EC01F62ED42EE22E60E04B
:103C90000E94EC1D60E0CE010E94EC1D60E0CE01B0
:103CA0000E94EC1D60E0CE010E94EC1D10E01BC0E4
:103CB0008B819C81212F30E0A901440F551F420FB9
:103CC000531FFA013296E80FF91F2081FA0131964D
:103CD000E80FF91F840F951F4081FC016081CE0120
:103CE0000E940D1E1F5F8A811817F0F41F11E0CF8C
:103CF000EB81FC81812F90E09C01220F331F820F0A
:103D0000931FE80FF91FD082EB81FC819C012F5F8C
:103D10003F4FE20FF31FE0822B813C810296820F1E
:103D2000931FFC010083C4CF60E0CE010E94EC1D14
:103D300060E0CE010E94EC1D60E0CE010E94EC1D0F
:103D400060E0CE010E94EC1DDF91CF911F910F9199
:103D5000FF90EF90DF9008950F931F9390E0FC0188
:103D6000E255FF4F7491FC01E656FF4FE49161115B
:103D7000672F89019A013F70F0E0EE0FFF1FE057B7
:103D8000FF4F85919491462F672F0E942130611536
:103D900071058105910529F06F5F7F4F8F4F9F4F10
:103DA0009F701F910F910895DF92EF92FF920F93F2
:103DB0001F93CF93DF93CDB7DEB7A1970FB6F894DB
:103DC000DEBF0FBECDBF7C01CB01BA01D22E19A23E
:103DD00021E02D1520F48E010F5D1F4F0EC00F2E18
:103DE000FAE0DF2EF02DF7CFE95CD801EE938D01DC
:103DF000611571058105910579F02D2D30E050E0B8
:103E000040E00E949030E62F622F732F842F952F71
:103E1000EA3054F7E05DE9CF1097F9F0FD01019029
:103E20000020E9F73197AF014A1B5B0BD701ED91F9
:103E3000FC910280F381E02DB801C7010995A1969C
:103E40000FB6F894DEBF0FBECDBFDF91CF911F91AB
:103E50000F91FF90EF90DF90089590E080E0EFCF1A
:103E60002115310549F4DC01ED91FC910190F081BF
:103E7000E02D642F099508950E94D41E08959A019B
:103E8000462F50E070E060E00E94301F0895CF920E
:103E9000DF92EF92FF920F931F93CF93DF93EC018A
:103EA0006A017B012115310581F4E881F9810190D6
:103EB000F081E02D642F0995DF91CF911F910F9133
:103EC000FF90EF90DF90CF9008952A303105C1F434
:103ED000FF2024F02AE00E94D41EEECF6DE20E9463
:103EE000CA028C0144275527BA014C195D096E0995
:103EF0007F092AE0CE010E94D41E800F911FDCCFE3
:103F00000E94D41ED9CF9A01AB01770F660B770BB5
:103F10000E94471F0895DC01ED91FC910280F3811E
:103F2000E02D42E050E062E471E0099508950F93BE
:103F30001F93CF93DF93EC010E943F1F8C01CE01B2
:103F40000E948B1F800F911FDF91CF911F910F91C6
:103F500008950F931F93CF93DF93EC0188810E9404
:103F6000BB00182F89810E94BB00282F810F992741
:103F7000991F019779F18A819B81AC81BD81BB2317
:103F80000CF442C04A815B816C817D818E8190E01E
:103F9000B0E0A0E084179507A607B70744F48E8128
:103FA00090E0B0E0A0E08A839B83AC83BD8368810E
:103FB0004AE050E084E895E00E94971F69814AE05A
:103FC00050E084E895E00E94971FDF91CF911F9108
:103FD0000F910895121760F48A819B81AC81BD8195
:103FE0000196A11DB11D8A839B83AC83BD83C3CF82
:103FF0008A819B81AC81BD810197A109B1098A8326
:104000009B83AC83BD83B7CF1A821B821C821D8227
:10401000CECF6115710581F0FB0101900020E9F719
:104020003197AF01461B570BDC01ED91FC910280EB
:10403000F381E02D0995089590E080E0089585EDE5
:104040008093BC00409111055091120560911305B9
:1040500070911405495F5F4F6F4F7F4F689412F85E
:1040600076956795579547951694D1F78091BC0042
:1040700084FF1FC08091110590911205A091130536
:10408000B0911405892B8A2B8B2B81F34115510597
:104090006105710549F085E38A95F1F7000041500B
:1040A000510961097109E2CF809110050E94F10464
:1040B000089510925E0508950F931F93CF93DF9399
:1040C000EC01862F688349832A8361E00E941B01EB
:1040D00061E089810E941B018A8190E09C01220F8E
:1040E000331F61E070E0820F931F0E947A339C833C
:1040F0008B8310E08A81181748F400E020E040E04C
:10410000612FCE010E943C1E1F5FF4CFDF91CF9143
:104110001F910F9108958F929F92AF92BF92CF926D
:10412000DF92EF92FF920F931F93CF93DF9300D014
:1041300000D0CDB7DEB780910A0290910B020497B0
:10414000E1F180913802863009F40CC78091380281
:10415000893009F4A7C7809138028A3009F4B2C7C0
:10416000809138028B3009F4D7C7809138028C30A7
:1041700009F4ECC7809138028E3011F40C94E428D5
:10418000809138028D3011F40C943F2980913802CF
:104190008F3009F0EDC680910802909109020197D5
:1041A00009F0E6C610913902183010F40C94782901
:1041B0001092090210920802DBC680910C029091C5
:1041C0000D02892B09F0BDCF81E090E090930D02A4
:1041D00080930C02E8E3F2E08081809323028181E6
:1041E000282F30E03093070220930602908191300F
:1041F00009F4B8C090913802923009F4B8C0909197
:104200003802933009F4B8C090913802943009F420
:10421000C9C090913802943609F4CCC0909138020C
:10422000953609F4DDC090913802953009F4DBC071
:1042300090913802973009F4DDC09091380298309F
:1042400009F42EC190913802983209F432C180915C
:104250003802823309F492C180913802833309F421
:10426000A8C180913802843309F4CEC1809138020C
:10427000853309F4F0C180913802863309F417C2FE
:1042800080913802873309F439C28091380288332B
:1042900009F45EC280913802863409F482C28091AA
:1042A0003802873409F48FC280913802883409F4C7
:1042B000AAC280913802893409F4CCC280913802B4
:1042C0008A3409F4EEC2809138028B3409F420C399
:1042D000809138028C3409F441C3809138028D34C6
:1042E00009F4BBC3809138028E3409F4EEC3809187
:1042F00038028F3409F411C4809138028A3509F4E8
:1043000033C4809138028B3509F43EC48091380261
:104310008C3509F44DC4809138028D3509F49CC464
:10432000809138028E3509F4FDC4809138028F35B2
:1043300009F443C580913802863109F4C5C58091DE
:104340003802853109F4D9C580913802883109F0E5
:104350000FC66FE771E08BE893E00E94811A8093AB
:10436000240206C60E94BB008093240201C660910D
:104370003A020E94E800FCC5809139020E94C30104
:104380009C01992344F0309324029078992334F0CF
:1043900080932502EDC521503F4FF5CF01979F6FC8
:1043A0000196F6CFE8E3F2E06281818170E00E943D
:1043B0005A01DEC580910402909105029093030298
:1043C00080930202E8E3F2E0828190E0982F882750
:1043D0002381820F911D9093050280930402C8C52A
:1043E0000E94C10CC5C5E8E3F2E0628181810E94B0
:1043F0001B01BEC561E00E941B0106E012E060E007
:10440000D8018C910E94E80082E090E00E941302A3
:1044100061E0F80180810E94E80085E090E00E9460
:10442000130260E0D8018C910E94E80060E0F8017E
:1044300080810E941B0128EF34E241E050E061E0FE
:10444000D8018C910E94AC1E4B015C012AE330E044
:1044500040E050E00E94663069017A01C501B40174
:1044600020E03AE340E050E00E94663020932402CE
:10447000DD24EE24B0E8FB22FF201CF0C0922502D0
:1044800077C5E1E0CE1AD108E108F108DD24DA941D
:10449000ED2CFE2CFFEFCF1ADF0AEF0AFF0AEECF5A
:1044A000E3E2F2E081E0818384E0828382E083833F
:1044B0005FC52091080230910902232B09F458C5E9
:1044C00090913A029923A1F090913A02913089F1AA
:1044D00090913A029230A9F190913A02933079F496
:1044E00026E045E1682F8CEE91E00E94BC1D07C0DC
:1044F00026E04BE0682F8CEE91E00E94BC1D60E04E
:104500008CEE91E00E94191DAC01809138028093DD
:104510000E0291E09530E8F4292F30E0FA01E20F25
:10452000F31F31978081225F3D4FD9018C939F5FAC
:10453000F1CF26E046E1682F8CEE91E00E94BC1D91
:10454000DECF26E045E1682F8CEE91E00E94BC1D95
:10455000D6CF95E0993068F4292F30E0FA01E20FC8
:10456000F31F31978081225F3D4FF90180839F5F68
:10457000F1CF1092090210920802FAC4E8E3F2E0C7
:1045800021812250330BC901880F991F880F991F71
:10459000880F991F821B930B8E539E4F328141814E
:1045A000618121E0311101C020E06F5F0E942C1C6D
:1045B000DFC4809139028250990B9C01220F331F76
:1045C000220F331F220F331FA901481B590BCA01A9
:1045D0008E539E4F0E94251B882309F442CEE8E3A8
:1045E000F2E021812250330B828161E0811101C010
:1045F00060E047E0429FC001439F900D11248E531D
:104600009E4F0E94251CB4C4809139028250990BA0
:104610009C01220F331F220F331F220F331FD9019A
:10462000A81BB90BCD018E539E4F0E94251B8823DA
:1046300009F41CCEE8E3F2E021812250330B6281C1
:1046400047E0429FC001439F900D11248E539E4F1F
:104650000E94111C8DC4809139028250990B9C01DB
:10466000220F331F220F331F220F331FF901E81BC4
:10467000F90BCF018E539E4F0E94251B882309F40E
:10468000FACDE8E3F2E021812250330B838162818D
:1046900041E0811101C040E057E0529FC001539FAB
:1046A000900D11248E539E4F0E94E21B61C4809195
:1046B00039028250990B9C01220F331F220F331FA6
:1046C000220F331FA901481B590BCA018E539E4F5D
:1046D0000E94251B882309F4D3CDE8E3F2E0218171
:1046E0002250330B628147E0429FC001439F900DEF
:1046F00011248E539E4F0E94C71B3AC480913902E9
:104700008250990B9C01220F331F220F331F220F5F
:10471000331FD901A81BB90BCD018E539E4F0E94A8
:10472000251B882309F4B1CDE8E3F2E02181225072
:10473000330B82816381762F682F47E0429FC0014F
:10474000439F900D11248E539E4F0E94791B10C4DD
:10475000809139028250990B9C01220F331F220F46
:10476000331F220F331FF901E81BF90BCF018E53C2
:104770009E4F0E94251B882309F48CCD209139027D
:104780002250330B47E0429FC001439F900D1124FC
:104790008E539E4F0E942D1BE3E2F2E081839283B1
:1047A000E7C3E8E3F2E081818250990B41816181A6
:1047B0004F5F9C01220F331F820F931F80559E4F26
:1047C0000E94BD0FD5C3809139028250990B9C0184
:1047D000220F331F820F931F80559E4F0E944D0E54
:1047E000882309F461CDE8E3F2E081818250990BDE
:1047F00062819C01220F331F820F931F80559E4FB1
:104800000E94B60FB5C3809139028250990B9C016A
:10481000220F331F820F931F80559E4F0E944D0E13
:10482000882309F446CDE8E3F2E081818250990BB8
:104830009C01220F331F820F931F22816381762FE9
:10484000622FE12C00E024E040E080559E4F0E9462
:10485000270F8EC3809139028250990B9C01220F41
:10486000331F820F931F80559E4F0E944D0E882349
:1048700009F424CDE8E3F2E081818250990B9C0198
:10488000220F331F820F931F22816381762F622FA5
:10489000E12C00E024E041E080559E4F0E94270F6C
:1048A00067C3809139028250990B9C01220F331FFC
:1048B000820F931F80559E4F0E944D0E882309F44E
:1048C00002CD08E312E0D80111968C911197825025
:1048D000990B13966C919C01220F331F820F931F2B
:1048E00080559E4F0E94540E8983F8018181825029
:1048F000990B9C01220F331F820F931F228141E0ED
:10490000BE016F5F7F4F80559E4F0E94E90E30C3FE
:10491000809139028250990B9C01220F331F820F24
:10492000931F80559E4F0E944D0E882309F4D0CCD2
:10493000E8E3F2E08381898381818250990B9C01B5
:10494000220F331F820F931F228141E0BE016F5F50
:104950007F4F80559E4F0E94E90E0AC38091390215
:104960008250990B9C01220F331F820F931F805599
:104970009E4F0E944D0E882309F4AFCC08E312E04D
:10498000D80111962C9111972250330B12968C91CD
:104990000F2EFAE0FF2EF02D6F2D0E94D130A901CD
:1049A000440F551F240F351F682FC90180559E4F96
:1049B0000E94540E8983F80121812250330B828199
:1049C0006F2D0E94D130692FC901880F991F820F66
:1049D000931F80559E4F0E94540E80688A83D80191
:1049E00011962C9111972250330B13968C916F2DA9
:1049F0000E94D130A901440F551F240F351F682F85
:104A0000C90180559E4F0E94540E8B83F80121816D
:104A10002250330B83816F2D0E94D130692FC90141
:104A2000880F991F820F931F80559E4F0E94540E2E
:104A30008C83D80111968C918250990B9C01220F86
:104A4000331F820F931F20E044E0BE016F5F7F4F52
:104A500080559E4F0E94E90E8BC280913902825090
:104A6000990B9C01220F331F820F931F80559E4F7D
:104A70000E944D0E882309F435CCE8E3F2E0F28081
:104A8000A380B4E0AB9E50011124D12CC12CCA14D8
:104A9000DB040CF06DC2009139020250110B8F2D16
:104AA0000E94C301F801EE0FFF1FE00FF11FE12C80
:104AB00000E024E040E0BC01CF0180559E4F0E9401
:104AC000270FEFEFCE1ADE0AE2CF80913902825033
:104AD000990B9C01220F331F820F931F80559E4F0D
:104AE0000E944D0E882309F402CC8FEF89838A83BC
:104AF0008B838C83809139028250990B9C01220F09
:104B0000331F820F931F20E044E0BE016F5F7F4F91
:104B100080559E4F0E94E90E2BC28091390282502F
:104B2000990B9C01220F331F820F931F80559E4FBC
:104B30000E944D0E882309F4DFCB19821A821B8252
:104B40001C82809139028250990B9C01220F331FE5
:104B5000820F931F20E044E0BE016F5F7F4F8055BE
:104B60009E4F0E94E90E04C2A8E3B2E011968C9118
:104B70001197EDEAF1E0808312968C911297818370
:104B800013968C918283F4C1E8E3F2E021812250F4
:104B9000330B45E0429FC001439F900D11242281B9
:104BA000418161814F5F81579E4F0E945C20E0C12F
:104BB0000F2EF8E3EF2EF2E0FF2EF02DD701119625
:104BC000EC911197E250FF0B12962C9112971196CF
:104BD0004C91119711966C914F5F35E03E9FC0014B
:104BE0003F9F900D112481579E4F0E945C20F7013A
:104BF000838190E095958795959587958170D82EBE
:104C0000D194838190E0959587958170182F1195A7
:104C100083818170C82EC194F12CE12C80913A02DD
:104C20008E151F0409F00CF4A3C180913902825043
:104C3000990B9C01220F331F220F331F820F931FEA
:104C40000C2D212F4D2D6E2D81579E4F0E943C1E05
:104C5000FFEFEF1AFF0AE2CF80913A02882391F02A
:104C6000209139022250330B45E0429FC001439FFF
:104C7000900D112481579E4F0E94D31D182FF12CA7
:104C8000E12C32C0E8E3F2E021812250330B638152
:104C9000EDEAF1E045E0429FC001439F900D1124F1
:104CA00002812181408181579E4F0E943C1E60C13C
:104CB00080913B028E151F0401F120913902225090
:104CC000330BEDEAF1E045E0429FC001439F900DB8
:104CD00011240281218140816E2D81579E4F0E94B7
:104CE0003C1E2FEFE21AF20A1E151F0409F00CF405
:104CF0003FC180913A028130D9F280913A028230EC
:104D000059F080913A02833061F780913B028E1511
:104D10001F0409F034F7D1CF80913B028E151F0498
:104D200064F6EFCF80913B02811103C081E0809354
:104D30003B020F2EF8E3EF2EF2E0FF2EF02DD7010D
:104D400011962C912250330B45E0429FC001439FA6
:104D5000900D112481579E4F0E94D31D182FF701EB
:104D6000E280F12C03C03FEFE31AF30A1E151F0483
:104D700009F00CF4FDC0E8E3F2E082819701281B02
:104D80003109C901638170E00E94DD30892B59F738
:104D9000209139022250330BEDEAF1E045E0429FC9
:104DA000C001439F900D11240281218140816E2D0D
:104DB00081579E4F0E943C1ED6CF08E312E0D801D7
:104DC00011962C912250330B45E0429FC001439F26
:104DD000900D112481579E4F0E94D31DC82EF801BB
:104DE0008381811138C0F12CE12C15C0209139024A
:104DF0002250330B45E0429FC001439F900D112488
:104E000000E020E040E06E2D81579E4F0E943C1E46
:104E1000FFEFEF1AFF0ACE141F0409F00CF4A8C02C
:104E200080913A028E151F0409F304F32091390290
:104E30002250330BEDEAF1E045E0429FC001439F71
:104E4000900D11240281218140816E2D81579E4F4A
:104E50000E943C1EDDCFD12C760115C02091390275
:104E60002250330B45E0429FC001439F900D112417
:104E700000E020E040E06E2D81579E4F0E943C1ED6
:104E800031E0E31AF1081E141F040CF071C0809188
:104E90003A029601281B3109E216F306FCF2209132
:104EA00039022250330BEDEAF1E045E0429FC001A8
:104EB000439F900D11240281218140816E2D8157E5
:104EC0009E4F0E943C1EDCCF08E312E0D8011196F1
:104ED0006C914AE050E084E895E00E943F1FF801A1
:104EE000618170E08BE893E00E9412088BE893E008
:104EF0000E941B08D8011C923BC06FE771E08BE851
:104F000093E00E94811A892B29F480917F0180937C
:104F100024022EC0AFE7B1E08C91E3E2F2E081839E
:104F200012969C91129713968C9113979283838378
:104F300014968D919D910D90BC91A02D8483492F45
:104F40005A2F6B2F77274583AD0166277727468336
:104F50008B2F9927AA27BB2787838BE893E00E9492
:104F6000150806C08091080290910902019789F006
:104F70000F900F900F900F90DF91CF911F910F9195
:104F8000FF90EF90DF90CF90BF90AF909F908F9069
:104F90000895E8E3F2E081818F70D82E818190E05E
:104FA00095958795959587959595879595958795E9
:104FB000182F1370218130E0022E232F000C221FA6
:104FC000330B000C221F331FB22FB370CB2E828104
:104FD00090E0982F8827A380A80EB92EB11CED2C45
:104FE000F12CF701E655FD4F808181112AC062E066
:104FF0008D2D0E941B0181E0F701E655FD4F808356
:10500000F701ED5BFC4F1083C501B0E0A0E0F701B4
:10501000EE0FFF1FEE0FFF1FEE0FFF1FEE59FD4FAC
:1050200080839183A283B3831482158216821782B0
:10503000112359F01130A1F01092090210920802C8
:1050400097CF8D2D0E948509D2CFA7014A585E4F78
:1050500001E02C2D68E378E08D2D0E945C06ECCFFA
:10506000F701EE0FFF1FEE0DFF1DEE0FFF1FEE0FFE
:10507000FF1FED54FD4F10821182128213821482A1
:105080001582168217821086118612861386A70152
:105090004A585E4F00E021E068E378E08D2D0E94E1
:1050A0005C06CACF8091080290910902019709F02D
:1050B0005FCF809139020E948509109209021092F7
:1050C000080256CF8091080290910902019709F0D9
:1050D0004FCFE0913902F0E0EE0FFF1FEE0FFF1F00
:1050E000E25CFD4F80819181A281B381E3E2F2E035
:1050F0008183492F5A2F6B2F77274283AD01662773
:10510000772743838B2F9927AA27BB278483109265
:105110000902109208022CCF809108029091090296
:10512000019709F025CF10E000E002C00F5F1F4F8C
:10513000093011050CF01CCFF801E655FD4F8081B8
:105140008823A1F3802F0E948509F0CF8091080267
:1051500090910902019709F00BCF209139022A3072
:1051600000F130E020E050E040E02930310584F4E7
:10517000F901E655FD4F808190E0022E02C0880FB4
:10518000991F0A94E2F7480F591F2F5F3F4FEDCF49
:10519000E3E2F2E041835283109209021092080286
:1051A000E7CEA3E2B2E011961C921197E22FF0E055
:1051B000E655FD4F808190E002C0880F991F2A9527
:1051C000E2F712968C93E8CF809108029091090241
:1051D000019709F0CDCEE8E3F2E0118102811830A9
:1051E00008F040C0C12ED12CF601E655FD4F80815C
:1051F00081113DC07601EE0CFF1CEE0CFF1CEE0C85
:10520000FF1CEC18FD08F701E45BFC4F7F011083E5
:105210001F5F11831282138214821582068380819C
:1052200062E00E941B01F701818162E00E941B0184
:10523000F601E555FD4F81E08083F601E655FD4F0F
:105240008083D7018C9100E022E0A70169EA7FE129
:105250000E945C06F701818122E0A70169EA7FE1F3
:105260000E945C06109209021092080281CE812FE2
:105270000E94850981E0810F0E948509BBCF809142
:10528000080290910902019709F072CE80913902CB
:1052900090E0FC01EE0FFF1FEE0FFF1FEE0FFF1F50
:1052A000E81BF90BE45BFC4FC280D380E480F580FF
:1052B0004AE050E0B60184E895E00E94831F63E471
:1052C00071E084E895E00E940920E3E2F2E0C18207
:1052D0008D2D99278283990F880B982F8383DD0C5E
:1052E000CC08DC2CC482109209021092080240CE35
:1052F000812F0E94850981E0810F0E9485090C940D
:10530000D82080913D02811103C00E948B20089516
:105310000E948B2010923D0208956FEF7FEF81E095
:1053200090E00E9402036FEF7FEF81E090E00E9427
:10533000C8056FEF7FEF81E090E00E94E50B0895D4
:105340001F920F920FB60F9211240F931F932F935A
:105350003F934F935F936F937F938F939F93AF93FD
:10536000BF930091220610912306209124063091CC
:10537000250690912106B901A8014F5F5F4F6F4F3D
:105380007F4F83E0890F8D3740F086E8890FB901A0
:10539000A8014E5F5F4F6F4F7F4F80932106409370
:1053A000220650932306609324067093250680916D
:1053B000260690912706A0912806B091290601960D
:1053C000A11DB11D8093260690932706A093280661
:1053D000B0932906BF91AF919F918F917F916F916B
:1053E0005F914F913F912F911F910F910F900FBEA1
:1053F0000F901F9018950E94D8010E94160E0E94CF
:1054000081290E947004FBCF1F920F920FB60F925A
:1054100011242F933F934F935F936F937F938F93B9
:105420009F93AF93BF93EF93FF9384E895E00E941F
:10543000E103FF91EF91BF91AF919F918F917F9188
:105440006F915F914F913F912F910F900FBE0F90F1
:105450001F9018951F920F920FB60F9211242F9341
:105460008F939F93AF93BF93EF93FF93E091940536
:10547000F0919505808182FD14C0E4E8F5E0A689ED
:10548000B7892C91818D8F5F8F73928D891771F001
:10549000DF01E18DF0E0EC57FA4F258F59968C93A0
:1054A00005C0E0919A05F0919B058081FF91EF91F5
:1054B000BF91AF919F918F912F910F900FBE0F9041
:1054C0001F9018951F920F920FB60F9211242F93D1
:1054D0003F934F935F936F937F938F939F93AF937C
:1054E000BF93EF93FF93E091B900E87FE93C08F0A8
:1054F000D5C0F0E0E258F54D0C94F130432C4E2B22
:105500004E2B4E2B4E2B4E2B4E2B4E2B472B4E2BDA
:105510004E2B4E2B4E2B4E2B4E2B4E2B472B4E2BCA
:105520004E2B4E2B4E2B4E2B4E2B4E2B5F2B4E2BA2
:105530004E2B4E2B4E2B4E2B4E2B4E2B852B4E2B6C
:105540004E2B4E2B4E2B4E2B4E2B4E2B5F2B4E2B82
:105550004E2B4E2B4E2B4E2B4E2B4E2B8B2B4E2B46
:105560004E2B4E2B4E2B4E2B4E2B4E2B912B4E2B30
:105570004E2B4E2B4E2B4E2B4E2B4E2BA32B4E2B0E
:105580004E2B4E2B4E2B4E2B4E2B4E2BCD2B4E2BD4
:105590004E2B4E2B4E2B4E2B4E2B4E2B972B4E2BFA
:1055A0004E2B4E2B4E2B4E2B4E2B4E2BB12B4E2BD0
:1055B0004E2B4E2B4E2B4E2B4E2B4E2BD02B4E2BA1
:1055C0004E2B4E2B4E2B4E2B4E2B4E2BD02B4E2B91
:1055D0004E2B4E2B4E2B4E2B4E2B4E2BD02B4E2B81
:1055E0004E2B4E2B4E2B4E2B4E2B4E2BD02B4E2B71
:1055F0004E2B4E2B4E2B4E2B4E2B4E2BD92B4E2B58
:105600004E2B4E2B4E2B4E2B4E2B4E2B0A2C4E2B15
:105610004E2B4E2B4E2B4E2B4E2B4E2BD92B4E2B37
:105620004E2B4E2B4E2B4E2B4E2B4E2B0A2C4E2BF5
:105630004E2B4E2B4E2B4E2B4E2B4E2BF12B4E2BFF
:105640004E2B4E2B4E2B4E2B4E2B4E2B0E2C4E2BD1
:105650004E2B4E2B4E2B4E2B4E2B4E2B0E2C4E2BC1
:105660004E2B4E2B4E2B4E2B4E2B4E2B232C4E2B9C
:105670004E2B4E2B4E2B4E2B4E2B4E2B3D2C4E2B72
:105680004E2B4E2B4E2B4E2B4E2B4E2B3D2C8091CA
:1056900083058093BB0081E00E948204FF91EF911B
:1056A000BF91AF919F918F917F916F915F914F913A
:1056B0003F912F910F900FBE0F901F9018959091D2
:1056C000820580918105981768F0809160058111AD
:1056D00019C081E080935F0584EA8093BC0010923A
:1056E0005E05DCCFE091820581E08E0F809382051C
:1056F000F0E0EF59FA4F80818093BB0081E00E9477
:105700008204CCCF0E941F20C9CF80E280935D0528
:105710000E941F20C3CF80E380935D050E941F205D
:10572000BDCF88E380935D050E947C04B7CFE091F4
:10573000820581E08E0F80938205F0E08091BB00AE
:10574000EF59FA4F808390918205809181059817D7
:1057500020F481E00E948204A1CF80E00E948204B4
:105760009DCFE091820581E08E0F80938205F0E06D
:105770008091BB00EF59FA4F8083809160058111C1
:1057800009C081E080935F0584EA8093BC00109299
:105790005E0584CF0E941F2081CF0E941F207ECFF4
:1057A00083E080935E0510925C0581E00E94820494
:1057B00075CF80915C05803280F4E0915C0581E0DA
:1057C0008E0F80935C05F0E08091BB00E45CFA4FA3
:1057D000808381E00E94820461CF80E00E94820485
:1057E0005DCF0E947C0480915C05803230F4E091B2
:1057F0005C05F0E0E45CFA4F108260915C0570E0BB
:10580000E0913A05F0913B058CE395E00995109203
:105810005C0544CF80E00E94820440CF84E0809306
:105820005E051092390510923805E0913605F09129
:105830003705099580913805811105C081E0809375
:10584000380510921605E091390581E08E0F80939E
:105850003905F0E0EA5EFA4F80818093BB009091B9
:10586000390580913805981720F481E00E94820460
:1058700015CF80E00E94820411CF81E00E94820453
:1058800010925E050BCF10925D050E941F2006CF7F
:105890001F920F920FB60F9211242F933F934F93A5
:1058A0005F936F937F938F939F93AF93BF93CF93A8
:1058B000DF93EF93FF93D9B120916D00E3E7F4E01C
:1058C000CD2FC09582A1C82391A19D23C92B80A172
:1058D0008D278223C823D0A3C0FF0AC0DF01019017
:1058E000F081E02D6D2F617012968D919C9109953C
:1058F000C1FF0DC0D1FB662760F9A3E7B4E01496A1
:10590000ED91FC91159716968D919C910995C2FF8A
:105910000DC0D2FB662760F9A3E7B4E01896ED91BD
:10592000FC9119971A968D919C910995C3FF0DC012
:10593000D3FB662760F9A3E7B4E01C96ED91FC91D8
:105940001D971E968D919C910995C4FF0DC0D4FBA7
:10595000662760F9A3E7B4E05096ED91FC9151976A
:1059600052968D919C910995C5FF0DC0D5FB662778
:1059700060F9A3E7B4E05496ED91FC9155975696E3
:105980008D919C910995C6FF0DC0D6FB662760F9E5
:10599000A3E7B4E05896ED91FC9159975A968D91F2
:1059A0009C910995CC2374F46D2F661F6627661FA2
:1059B000A3E7B4E05C96ED91FC915D975E968D91C6
:1059C0009C910995FF91EF91DF91CF91BF91AF919C
:1059D0009F918F917F916F915F914F913F912F9107
:1059E0000F900FBE0F901F9018951F920F920FB639
:1059F0000F9211242F933F934F935F936F937F9355
:105A00008F939F93AF93BF93CF93DF93EF93FF93C6
:105A1000D6B120916C00E6E9F4E0CD2FC09582A1CB
:105A2000C82391A19D23C92B80A18D278223C82340
:105A3000D0A3C0FF0AC0DF010190F081E02D6D2FDF
:105A4000617012968D919C910995C1FF0DC0D1FB9B
:105A5000662760F9A6E9B4E01496ED91FC911597DC
:105A600016968D919C910995C2FF0DC0D2FB6627B9
:105A700060F9A6E9B4E01896ED91FC9119971A9691
:105A80008D919C910995C3FF0DC0D3FB662760F9EA
:105A9000A6E9B4E01C96ED91FC911D971E968D91A0
:105AA0009C910995C4FF0DC0D4FB662760F9A6E957
:105AB000B4E05096ED91FC91519752968D919C9146
:105AC0000995C5FF0DC0D5FB662760F9A6E9B4E0CE
:105AD0005496ED91FC91559756968D919C91099510
