:100000000C9462000C948A000C948A000C94EB2CE3
:100010000C943E2C0C94912B0C948A000C947E2E04
:100020000C948A000C948A000C948A000C94982DED
:100030000C948A000C94572E0C948A000C948A001D
:100040000C94E9280C948A000C9473290C944D2983
:100050000C948A000C948A000C948A000C948A00F8
:100060000C94AB290C948A000000000024002700A7
:100070002A0000000000250028002B0000000008D6
:10008000000201000003040700000000000000005F
:1000900000000000230026002900040404040404D6
:1000A0000404020202020202030303030303010227
:1000B00004081020408001020408102001020408F6
:1000C0001020D62811241FBECFEFD8E0DEBFCDBF51
:1000D00011E0A0E0B1E0EAE1F8E602C005900D927F
:1000E000A634B107D9F726E0A6E4B1E001C01D921D
:1000F000AB31B207E1F710E0C2E6D0E004C02197CF
:10010000FE010E943A30C136D107C9F70E94442946
:100110000C940B340C94000008958330B1F060F01F
:100120008730E9F0883009F1843021F5E0E8F0E02B
:1001300080818F7D80830895813069F0823021F441
:1001400084B58F7D84BD08950895E0E8F0E0808156
:100150008F778083089584B58F7784BD0895E0EB11
:10016000F0E080818F7780830895E0EBF0E080817C
:100170008F7D80830895CF93DF93282F30E0F9019E
:10018000E458FF4F8491F901E255FF4FD491F901F2
:10019000E656FF4FC491CC23B1F081110EC0EC2F75
:1001A000F0E0EE0FFF1FE057FF4FA591B491EC91E7
:1001B000ED2331F490E080E008C00E948D00EFCF85
:1001C00081E090E002C090E080E0DF91CF9108955F
:1001D0001F93CF93DF93282F30E0F901E458FF4FAE
:1001E0008491F901E255FF4F1491F901E656FF4F52
:1001F000C491CC23A9F0D62F811116C0EC2FF0E0CA
:10020000EE0FFF1FEE58FF4FA591B4918FB7F894F2
:10021000D1110DC09C91E12FE095E923EC938FBFA4
:10022000DF91CF911F9108950E948D00E7CFEC914F
:10023000E12BEC93F4CFCF93DF9390E0FC01E255F8
:10024000FF4F249186569F4FFC018491882319F11A
:1002500090E0880F991FFC01E859FF4FA591B491D8
:10026000FC01EE58FF4FC591D491662349F06230EE
:10027000A9F08FB7F894EC91E22BEC938FBF0BC0F1
:100280009FB7F8948C91E22FE0958E238C93888110
:10029000E823E8839FBFDF91CF9108959FB7F8943B
:1002A0003C91822F809583238C93E881E22BE88315
:1002B0009FBFF1CF1F93CF93DF93182FEB0161E026
:1002C0000E941B012097D9F0CF3FD10501F1E12F0A
:1002D000F0E0E458FF4FE491E33061F1E8F0E730FB
:1002E000E9F1E83009F442C0E43071F1C038D105D9
:1002F0000CF444C061E0812F0E94E80004C060E07B
:10030000812F0E94E800DF91CF911F91089561E055
:10031000812F0E94E800F7CFE13039F0E23031F769
:1003200084B5806284BDC8BDEECF84B5806884BDCD
:10033000C7BDE9CFE0E8F0E0808180688083D0939A
:100340008900C0938800DFCFE0E8F0E08081806220
:100350008083D0938B00C0938A00D5CFE0EBF0E090
:10036000808180688083C093B300CDCFE0EBF0E064
:10037000808180628083C093B400C5CF60E0812F0C
:100380000E94E800C0CF8E3008F08E5087708064E5
:1003900080937C00EAE7F0E0808180648083809134
:1003A0007A0086FDFCCF80917800909179000895C5
:1003B000789484B5826084BD84B5816084BD85B540
:1003C000826085BD85B5816085BDEEE6F0E0808107
:1003D00081608083E1E8F0E0108280818260808328
:1003E000808181608083E0E8F0E0808181608083AB
:1003F000E1EBF0E0808184608083E0EBF0E08081DD
:1004000081608083EAE7F0E080818460808380817E
:100410008260808380818160808380818068808326
:100420001092C10008958230910538F0880F991F0D
:10043000880F991F05970197F1F708953FB7F89432
:100440008091130690911406A0911506B09116069E
:1004500026B5A89B05C02F3F19F00196A11DB11D1F
:100460003FBFBA2FA92F982F8827BC01CD01620F5B
:10047000711D811D911D660F771F881F991F660FC3
:10048000771F881F991F08958F929F92AF92BF92F6
:10049000CF92DF92EF92FF926B017C010E941E02CD
:1004A0004B015C011BC021E0C21AD108E108F10830
:1004B00088EE880E83E0981EA11CB11CC114D104E3
:1004C000E104F10459F00E941E02681979098A09B1
:1004D0009B09683E73408105910528F7C114D1043A
:1004E000E104F10459F7FF90EF90DF90CF90BF90B7
:1004F000AF909F908F9008952FB7F89460910F065A
:100500007091100680911106909112062FBF0895E8
:1005100008954F925F926F927F92AF92BF92CF9267
:10052000DF92EF92FF920F931F93CF93DF93CDB79C
:10053000DEB729013A019B01AC01241935094609AE
:10054000570989899A89AB89BC89BC01CD016A198F
:100550007B098C099D090E940A30A8019701241982
:100560003509460957090E94AF2FCA01B9016A0D22
:100570007B1D8C1D9D1DDF91CF911F910F91FF90D1
:10058000EF90DF90CF90BF90AF907F906F905F9093
:100590004F900895DC01ED91FC910190F081E02DE8
:1005A00009950895CF92DF92EF92FF920F931F93D8
:1005B000CF93DF938C01DB01D0E0C0E07A0181E0D2
:1005C000E81AF108452BA1F0F80180819181FC0126
:1005D000208131816D01FFEFCF1ADF0A6C91C801D4
:1005E000F9010995892B21F02196A701D601E6CFC3
:1005F000CE01DF91CF911F910F91FF90EF90DF908F
:10060000CF900895019709F008956F3F7F4FE1F76C
:10061000E1E7F5E01382128288EE93E0A0E0B0E01B
:1006200084839583A683B78384E391E09183808359
:1006300085EC90E09587848784EC90E097878687A7
:1006400080EC90E0918B808B81EC90E0938B828B9F
:1006500082EC90E0958B848B86EC90E0978B868B78
:10066000118E128E138E148ECFCFFC01938D848D3C
:10067000981720F4891B990B019708952FE330E018
:10068000291B3109820F932F911D0895FC01918D33
:10069000828D981761F0A28DAE0FBF2FB11D5D96B0
:1006A0008C91928D9F5F9F73928F90E008958FEF52
:1006B0009FEF0895FC01918D828D981731F0828D06
:1006C000E80FF11D858D90E008958FEF9FEF08955D
:1006D000FC01218D30E0205C3F4F828DA901481B39
:1006E0005109CA018F739927089581E795E00E9407
:1006F000680321E0892B09F420E0822F0895CF922E
:10070000DF92EF92FF921F93CF93DF93EC016A0188
:100710007B01122F60E079E08DE390E0A701960164
:100720000E94D92F21503109410951095695479509
:1007300037952795E889F98982E08083C11481EE95
:10074000D806E104F10421F0211580E1380798F082
:10075000E889F989108260E874E88EE190E0A701E9
:1007600096010E94D92F215031094109510956950E
:10077000479537952795EC85FD853083EE85FF8578
:100780002083188EEC89FD891083EA89FB8980819A
:1007900080618083EA89FB89808188608083EA891F
:1007A000FB89808180688083EA89FB8980818F7DD5
:1007B0008083DF91CF911F91FF90EF90DF90CF90DA
:1007C0000895FC01A48DA80FB92FB11DA35ABF4FE6
:1007D0002C91848D90E001968F739078848FA689F8
:1007E000B7892C93A089B1898C91837080648C9394
:1007F000938D848D981308950288F389E02D80816C
:100800008F7D8083F8CF0F931F93CF93DF93EC01FD
:1008100081E0888F9B8D8C8D9817B1F0062F8B8D82
:1008200090E001968F739078182F8C8D81131EC0E5
:100830000FB607FCFACFE889F989808185FFF5CFEB
:10084000CE010E94E103F1CFE889F989808185FF1B
:10085000E5CF9FB7F894EE89FF896083E889F9892D
:1008600080818370806480839FBF10C0EB8DEC0F0C
:10087000FD2FF11DE35AFF4F00839FB7F8941B8FA4
:10088000EA89FB898081806280839FBF81E090E05C
:10089000DF91CF911F910F910895CF93DF93EC01DA
:1008A000888D811104C00DC00FB607FE0DC0EA8906
:1008B000FB89808185FDF8CFA889B9898C9186FF55
:1008C000F3CFDF91CF910895808185FFF0CFE88944
:1008D000F989808185FFEBCFCE010E94E103E7CF4C
:1008E00080E090E0892B21F00E947503811101C006
:1008F00008950E940000FCCF85EC8093BC0010920C
:100900004B050895811104C085E88093BC000895CB
:1009100085EC8093BC000895909324058093230573
:10092000089590932805809327050895AC012091A0
:100930002505260F3327331F21323105F4F480912A
:100940004B058430E1F490E00FC0E0912505292F9C
:1009500030E0E20FF32FF11D240F351FD9012C9148
:10096000ED5FFA4F20839F5F961778F380912505FE
:10097000680F6093250580E0089581E0089582E086
:100980000895880F8093BA000895ECEBF0E0808121
:100990008A7B808360E082E10E94E80060E083E17E
:1009A0000E94E800089510924B0581E080934D0568
:1009B00010924C0561E082E10E94E80061E083E171
:1009C0000E94E800E9EBF0E080818E7F80838081E7
:1009D0008D7F808388E48093B80085E48093BC0099
:1009E0000895EF92FF920F931F93CF93DF9391E0BF
:1009F00090930205811107C0DF91CF911F910F9154
:100A0000FF90EF900895C8EBD0E0F8800AEB10E07B
:100A1000F801E0800E94C5040E94D304F801E0823E
:100A2000F882EACF7093F0046093EF040895709316
:100A3000EE046093ED040895E091EF04F091F0046A
:100A4000309729F01092EC041092EB040995089568
:100A5000CF93DF93EC01E091ED04F091EE04309739
:100A6000E1F09091EA048091E9049817B0F090E0E9
:100A7000292F30E02617370754F4DE01A90FB11DE6
:100A80004C9127533B4FD9014C939F5FF1CFCB0142
:100A90001092EA046093E9040995DF91CF910895DB
:100AA0000895E091EA048091E904E81730F4F0E059
:100AB000E753FB4F808190E008958FEF9FEF0895FB
:100AC0009091EA048091E904981758F4E92FF0E036
:100AD000E753FB4F208130E09F5F9093EA04C90108
:100AE00008952FEF3FEFFBCF8091E9049091EA0446
:100AF000891B990B0895CF93DF93CB01C42FD52F7A
:100B0000642F0E9496048C2F9D2FDF91CF91089522
:100B1000CF93DF931F92CDB7DEB7698361E0CE013B
:100B200001960E94960481E090E00F90DF91CF91B2
:100B300008951092EA041092E9041092EC041092C5
:100B4000EB040E94D3048CE195E00E948C0488E2BF
:100B500095E00E9491040895CF93C62F0E949905B5
:100B60008C2F0E94C104CF9108950E94AC05089576
:100B7000FC011382128288EE93E0A0E0B0E084834F
:100B80009583A683B78382E291E091838083089561
:100B9000019709F008956F3F7F4FE1F781EF94E0EF
:100BA0000E94B805F7CF90E080E00895CF93DF93DF
:100BB000863158F468E670E0883050F08E3088F066
:100BC000863190F4CCE6D0E005C070E060E0F4CF70
:100BD000CDE6D0E0883058F091E08E3048F490E0D7
:100BE00007C0CBE6D0E0F6CFD0E0C0E0F3CF92E094
:100BF000883040F08E3018F4E8EFE80F04C0E2EFE0
:100C0000E80F01C0E82F4E2F50E021E030E002C095
:100C1000220F331FEA95E2F7913009F448C030F013
:100C2000923009F441C0F0E0E0E002C0E6EAF4E00E
:100C300061157105B1F12097A1F1309791F13FB79E
:100C4000F894440F551F440F551FDF01A40FB51F23
:100C500011961C921E9213961C921E92129720952A
:100C600091A1922391A392A1922392A398812923E7
:100C700028839881911114C0FB0190818830D0F0B5
:100C800021E08E3008F420E041E050E002C0440F43
:100C9000551F2A95E2F7842F80958923FB018083D5
:100CA0003FBFDF91CF910895E0E6F4E0C1CFE3E8E4
:100CB000F4E0BECF8BEFF1CF8F929F92AF92BF92B5
:100CC000CF92DF92EF92FF920F931F93CF93DF9318
:100CD000863170F4C8E6D0E0883068F08E30B8F025
:100CE0008631D8F40F2EFCE6EF2EF12CF02D08C043
:100CF000D0E0C0E0F1CF0F2EFDE6EF2EF12CF02D6D
:100D0000883070F091E08E3060F490E00AC00F2ED1
:100D1000FBE6EF2EF12CF02DF3CFF12CE12CF0CFF0
:100D200092E0883040F08E3018F438EF380F04C06D
:100D300032EF380F01C0382FC32ED12CE1E0F0E0A4
:100D40004F0102C0880C991C3A95E2F7913091F15D
:100D500028F0923061F1B0E0A0E002C0A6EAB4E071
:100D6000209709F493C0E114F10409F48FC010979F
:100D700009F48CC06115710509F488C01FB7F89497
:100D80005601AA0CBB1CAA0CBB1CAA0EBB1EF5016B
:100D90007183608353834283233079F0213069F07B
:100DA00091964C919197382D309534230AC0A0E646
:100DB000B4E0D6CFA3E8B4E0D3CF91963C9191971D
:100DC000382991963C9391972150223050F1929678
:100DD0003C919297282D2095232392962C939297BD
:100DE000F70120812829208328818830F8F031E01C
:100DF0008E3008F430E081E001C0880F3A95EAF7C0
:100E0000822B888390962C919097882D809528230B
:100E1000913009F448C060F0923009F446C080E097
:100E200008C092962C9192972829D7CF84E0E8CFDA
:100E300083B18821822B90968C939097002329F17F
:100E400092962C91929730E0482F50E04095509523
:100E50002423352391969C9191979823292B28211F
:100E60003921232B91F0E82DE82361E009F460E0BB
:100E7000CC0CDD1CCC0CDD1CAC0DBD1DED91FC9132
:100E8000119712968D919C9109951FBFDF91CF917B
:100E90001F910F91FF90EF90DF90CF90BF90AF9098
:100EA0009F908F90089586B1C4CF89B1C2CF8F92A1
:100EB0009F92AF92BF92CF92DF92EF92FF92CF9329
:100EC000DF93EB01BA0190E080E00E94A4314B0176
:100ED0005C01BE0190E080E00E94A4316B017C01C6
:100EE0002DEC3CEC4CE45FE30E9456329B01AC01DC
:100EF000C501B4010E94F7308823ECF02DEC3CECE6
:100F00004CE45FE3C501B4010E9456329B01AC0181
:100F1000C701B6010E94F730882384F482E090E094
:100F2000DF91CF91FF90EF90DF90CF90BF90AF9087
:100F30009F908F90089590E080E0F2CF81E090E064
:100F4000EFCF8F929F92AF92BF92CF92DF92EF92AC
:100F5000FF920F931F93CF93DF93FB01C484D5843B
:100F6000F6E0CF16D1040CF459C0EB017C0101E08E
:100F700010E00F2EF5EC8F2EFDE99F2EFCE1AF2E39
:100F8000F1E8BF2EF02DC80102968C159D054CF599
:100F90008A859B85F8013296EE0FFF1FE80FF91F37
:100FA000408151819801220F331F820F931FFC0152
:100FB00060817181C7010E945707FC01A50194015E
:100FC00063E971E080E091E00E940A304F01FF0F79
:100FD000AA08BB0886269726A826B9260F5F1F4FAA
:100FE000D2CF8C829D82AE82BF8280E290E09987D0
:100FF00088878FEF9FEF9983888361E070E080E0BE
:1010000090E0DF91CF911F910F91FF90EF90DF90D3
:10101000CF90BF90AF909F908F90089560E070E068
:10102000CB01EFCF60938F030895EEE8F3E082E009
:10103000808314820895F89482E08093B0008093B6
:10104000B10094E69093B3001092B20080937000C8
:101050007894EEE8F3E080831482818160E00E945E
:101060001B010895EEE8F3E082E081831382089586
:10107000CF92DF92EF92FF920F931F93CF93DF9364
:10108000FC01C081D0E0FE01E15CFC4F808188233F
:1010900009F45FC0FE01E15CFC4F8081813009F002
:1010A00069C0611170C00E941E02FE01EE0FFF1F99
:1010B000EC0FFD1FEE0FFF1FEE0FFF1FE155FD4F61
:1010C0006087718782879387FE01EE0FFF1FEC0F09
:1010D000FD1FEE0FFF1FEE0FFF1FE155FD4F848137
:1010E0009581A681B78100851185228533850817F2
:1010F00019072A073B07F0F5BC01CD01601B710BF6
:10110000820B930B28EE33E040E050E00E94D92F91
:101110006901330FEE08FF08CE01880F991FFC010B
:10112000EC0FFD1FEE0FFF1FEE0FFF1FE155FD4FF0
:101130004081518162817381C40ED51EE61EF71E67
:10114000C082D182E282F3821482158216821782D3
:1011500011C0CC0FDD1FCC0FDD1FC55EDC4F8881B9
:101160009981AA81BB810196A11DB11D88839983B4
:10117000AA83BB83DF91CF911F910F91FF90EF90D6
:10118000DF90CF9008950E941E02FE01EE0FFF1F18
:10119000EC0FFD1FEE0FFF1FEE0FFF1FE155FD4F80
:1011A00064837583868397838FCF8F929F92AF924C
:1011B000BF92CF92DF92EF92FF920F931F93CF9344
:1011C000DF930E941E0228EE33E040E050E00E94D0
:1011D000D92F69017A01D0E0C0E026C0CE01880F86
:1011E000991F880F991FFC01E55EFC4F40815181DA
:1011F00062817381865C9D4FDC014D935D936D939D
:101200007C9313971082118212821382FE01EE0FDB
:10121000FF1FEE0FFF1FEE0FFF1FE25AFD4FC482AC
:10122000D582E682F7822196C930D1050CF060C0E4
:10123000FE01EA55FD4F80818823A9F3FE01EE0FE0
:10124000FF1FEE0FFF1FEE0FFF1FE25AFD4F8481BD
:101250009581A681B78146015701881A990AAA0A81
:10126000BB0A80819181A281B38188169906AA0662
:10127000BB06C8F2FE01E15CFC4F8081882309F4C3
:10128000ADCF813019F68E01000F111F0C0F1D1FFD
:10129000000F111F000F111F01551D4FF801208174
:1012A000318142815381FE01EE0FFF1FEE0FFF1FC0
:1012B000EE0FFF1FE25AFD4F6081718182819381A1
:1012C0000E940A30A50194010E94D92FFE01EE0F61
:1012D000FF1FEE0FFF1FE65CFD4F2083318342832B
:1012E0005383D8011D921D921D921C9213978ECF8D
:1012F000DF91CF911F910F91FF90EF90DF90CF90F2
:10130000BF90AF909F908F9008950F931F93CF93AE
:10131000082F10E0F801EA55FD4F9081911104C0AB
:10132000CF911F910F9108950E94D60561E0802F03
:101330000E941B01F801EA55FD4F1082F1CF809108
:101340003902882361F0E091F104F091F2040190F8
:10135000F081E02D67E181EF94E009950895809197
:101360003402813009F446C080913402833041F068
:1013700080913402873021F080913402883341F427
:1013800043E050E06FE172E081EF94E00E947B0562
:10139000809134028830B9F180913402843199F11E
:1013A000809134028E31C1F1809134028832E9F1AA
:1013B000809134028A3009F441C0809134028C302B
:1013C00009F445C080913402853109F449C0809107
:1013D00034028D3009F44FC080913402883109F015
:1013E000BDCF42E050E06FE172E081EF94E00E94F7
:1013F0007B05089542E050E06FE172E081EF94E0F8
:101400000E947B05B1CF44E050E06FE172E081EFD4
:1014100094E00E947B05C4CF49E050E06FE172E0A8
:1014200081EF94E00E947B05BFCF49E050E06AE085
:1014300072E081EF94E00E947B05BACF45E050E076
:101440006FE172E081EF94E00E947B05B6CF43E04C
:1014500050E06FE172E081EF94E00E947B05B2CF33
:1014600048E050E06FE172E081EF94E00E947B057C
:1014700010921F02ACCF45E050E06FE172E081EFC7
:1014800094E00E947B05A8CF81EF94E00E94740550
:10149000892B29F081EF94E00E946005F5CF089533
:1014A000809139028823B1F00E94440A089581EFA7
:1014B00094E00E9460052091060230910702A90184
:1014C0004F5F5F4F50930702409306022C5C3D4FE5
:1014D000F901808381EF94E00E947405892BA9F0C3
:1014E00081EF94E00E947405049709F710920902B5
:1014F00010920802109207021092060281E090E01A
:101500009093050280930402D2CF81E08093390248
:1015100008950F931F93FC0140814C3008F04DC09B
:10152000518128E830E0251B310957FD3395220F02
:10153000331F220F331F621773077CF0828128E567
:1015400032E0281B310987FD3395220F331F220F0C
:10155000331F261737070CF09B01C9010297092E8C
:10156000000CAA0BBB0B880F991FAA1FBB1F880F6B
:10157000991FAA1FBB1F8C019D01000F111F221F65
:10158000331F000F111F221F331FB5FD19C06894B0
:1015900012F835952795179507951694D1F75FB7EB
:1015A000F894842F90E0FC01EE0FFF1FE80FF91F65
:1015B000E45BFE4F128301835FBF1F910F9108957B
:1015C000095F1F4F2F4F3F4FE2CFAF92BF92CF9295
:1015D000DF92EF92FF920F931F93CF93DF93EC0173
:1015E000603282E078070CF041C0772334F0653B2D
:1015F00071052CF064EB70E002C070E060E08A815D
:1016000028E532E0281B310987FD3395220F331F6F
:10161000220F331F89810F2EF8E8AF2EB12CF02D49
:10162000A81AB10887FDB394AA0CBB1CAA0CBB1C5A
:101630000B2C000CCC08DD08072E000C880B990B36
:101640008901330F220B330B3F932F931F930F937B
:1016500014EBE12EF12C00E010E020E030E0A901D5
:101660000E9489020F900F900F900F90CE010E9460
:10167000890ADF91CF911F910F91FF90EF90DF903A
:10168000CF90BF90AF900895FC0190914B019C309A
:1016900018F08FEF8083089581E0890F80934B01CC
:1016A0009083892F90E0FC01EE0FFF1FE80FF91FD8
:1016B000E45BFE4F88EB9BE0928381830895019762
:1016C00009F008956F3F7F4FE1F78BE893E00E94A8
:1016D000440B88E893E00E94440B87E893E00E9463
:1016E000320888E090E0E8E4F3E0992354F320E244
:1016F000268337960197F9CFAC0190E09C30B8F47F
:101700009A01220F331F240F351F220F331F220F80
:10171000331F290F311DF901EE0FFF1FE20FF31FD9
:10172000E45BFE4F808186FD04C09F5FE7CF80E0D1
:10173000089581E00895DC01EC918E2F90E0FC018A
:10174000EE0FFF1FE80FF91FE45BFE4F80818F7BD8
:1017500080830895892B89F41092800082E0809321
:101760008100109285001092840086B3826086BB4F
:10177000EFE6F0E08081826080830895DF92EF924F
:10178000FF920F931F93CF93DF93EC01D62E7A0134
:10179000890188818C3048F08881DF91CF911F9139
:1017A0000F91FF90EF90DF90089561E08D2D0E94E2
:1017B0001B01E8818E2F90E0FC01EE0FFF1FE80F68
:1017C000F91FE45BFE4F8D2D8F73D0809D2D907C93
:1017D000D92ED82AD08220E232E02E193F09C90141
:1017E00099236CF19595879595958795898320E642
:1017F00039E0201B310BC90199231CF19595879580
:10180000959587958A8308818BEA089F012D11247D
:1018100006950695069510E0C8010E947C0B88236A
:1018200091F0E8818E2F90E0FC01EE0FFF1FE80F92
:10183000F91FE45BFE4F808180648083ADCF039607
:10184000D1CF0396DBCFC8010E94AA0BEACF20E6D6
:1018500039E040E252E00E94BE0B0895E1E8F0E07A
:101860002081DC0112968C91282B208308950F9300
:101870001F93FC01A0E4B6E09A01AB010E94CE2FB9
:101880006115710521E0820791050CF444C08B01BC
:101890009C01689412F8359527951795079516942D
:1018A000D1F70115110541E0240731050CF44CC0B6
:1018B0008B019C01689415F8359527951795079528
:1018C0001694D1F70115110541E0240731050CF4F8
:1018D0003FC0072F182F292F332727FD3A950115D1
:1018E000110541E024073105BCF1052E5AE095951C
:1018F0008795779567955A95D1F7502D61157105A4
:1019000021E08207910564F185E082836FEF7FEF2C
:1019100080E090E002C021E022832FB72383F89477
:1019200071836083709387006093860083818FBF8B
:10193000A1E8B0E08C91887F8C938C919281892B67
:101940008C931F910F91089582E08283B801E5CFB7
:1019500083E08283B801E1CF84E08283B801DDCFE8
:1019600025E02283DACF0F931F93CF93DF93EC010F
:101970008B01121613061406150624F4BA01A901E8
:101980000E94370C1D830C8381E080936F00CE0191
:101990000E942E0CDF91CF911F910F91089526E0A8
:1019A00040E056E960E070E081E795E00E947F0347
:1019B00066E070E081EF94E00E94B50560E57AE0B2
:1019C00081EF94E00E9417056FE979E081EF94E0E0
:1019D0000E9412058AB180618AB98BB18F7E8BB962
:1019E00090E080E08930910534F4FC01EA58FE4F24
:1019F00080830196F7CF28EE33E040E050E065EDBC
:101A000078E080E791E00E94B30C0895FC0190819A
:101A100081E0911101C080E008956F70E62FF0E041
:101A2000E25FFE4F8081089582E390E00E941302FE
:101A30000895EF92FF920F931F93CF93DF93EC01E2
:101A4000E62EF12C12C061E089810E941B01CE01BB
:101A50000E94140D60E088810E941B01CE010E944B
:101A6000140D15950795E02EF39487E08F1580F0FF
:101A700061E088810E941B01CE010E94140D0E2D91
:101A800010E0E0FEE0CF60E089810E941B01DFCF23
:101A900061E088810E941B0160E089810E941B0136
:101AA000CE010E94140D60E088810E941B01CE01CE
:101AB0000E94140D89810E94BB00182F8823A9F071
:101AC000CE010E94140D61E088810E941B01CE01AD
:101AD0000E94140D81E0111101C080E0DF91CF91CF
:101AE0001F910F91FF90EF90089561E089810E940E
:101AF0001B01E6CFCF93DF93EC0161E089810E9467
:101B00001B01CE010E94140D60E088810E941B0120
:101B1000CE010E94140D60E089810E941B01CE015C
:101B20000E94140DDF91CF910895CF93DF93EC01C4
:101B300061E089810E941B01CE010E94140DDF919A
:101B4000CF910895EF92FF920F931F93CF93DF935E
:101B50008C017B01D42FC22F0E94950D60E4C80137
:101B60000E94190DC8010E947A0DC8010E94950DAE
:101B70006C2F63706054C8010E94190DC0E0CD172E
:101B800048F4F701EC0FF11D6081C8010E94190DA6
:101B9000CF5FF5CFC8010E947A0DC8010E94950D54
:101BA000F80162816058C8010E94190DC8010E94A5
:101BB0007A0DDF91CF911F910F91FF90EF900895D3
:101BC0004F925F926F927F928F929F92AF92BF924D
:101BD000CF92DF92EF92FF920F931F93CF93DF93F9
:101BE00000D000D0CDB7DEB74C015B01542EF22EF1
:101BF00010E04424439420C0C4010E940D0DE1E094
:101C0000F0E0EC0FFD1FEC0DFD1D808310C0C40142
:101C10000E940D0DE1E0F0E0EC0FFD1FEC0DFD1D4D
:101C20008083C501B3010E9426305C01412CEE2067
:101C300011F0113031F11F5F14306CF5C12E012EFF
:101C4000000CDD08E3E0F0E0EC19FD09EE0FFF1FEA
:101C5000EA5FFE4F60807180C501B3010E942630AB
:101C600061157105A1F65110C7CF442029F2133038
:101C700019F2E1E0F0E0EC0FFD1FEC0DFD1D10820C
:101C8000D6CFE1E0F0E0EC0FFD1FEC0DFD1D8081F3
:101C900080688083D0CF64E070E06F19710981E0C3
:101CA00090E08C0F9D1F680F791F202F4F2DC401CE
:101CB0000E94A20D0F900F900F900F90DF91CF9187
:101CC0001F910F91FF90EF90DF90CF90BF90AF905A
:101CD0009F908F907F906F905F904F9008956830A5
:101CE00008F067E0685FFC0162830895CF93DF939B
:101CF000EC01862F6883498360E00E941B0160E04D
:101D000089810E941B0160E088810E94E80060E0F8
:101D100089810E94E800DF91CF910895CF92DF92F0
:101D2000EF92FF92CF93DF93EC0164567109072E77
:101D3000000C880B990B0E94A6316B017C0120E0FE
:101D400030E040E45FE30E94563220E030E048E4B7
:101D500052E40E94FC300E946E31C617D70714F17E
:101D600020E030E040EA5FE3C701B6010E9456324E
:101D700020E030E048E452E40E94FC3020E030E013
:101D800040E85FE30E948B300E946E316C177D0744
:101D90005CF480E090E0DF91CF91FF90EF90DF90D6
:101DA000CF90089580E0F6CF81E0F4CFCF92DF921C
:101DB000EF92FF92CF93DF93EC016C597F4F072E88
:101DC000000C880B990B0E94A6316B017C0120E06E
:101DD00030E040E45FE30E94563220E030E048E427
:101DE00052E40E94FC300E946E31C617D70714F1EE
:101DF00020E030E040EA5FE3C701B6010E945632BE
:101E000020E030E048E452E40E94FC3020E030E082
:101E100040E85FE30E948B300E946E316C177D07B3
:101E20005CF480E090E0DF91CF91FF90EF90DF9045
:101E3000CF90089580E0F6CF81E0F4CF8F929F920B
:101E4000AF92BF92CF92DF92EF92FF920F931F93C8
:101E5000CF93DF9380919203863408F4A1C0EB0105
:101E6000EA85FB85828193816EEE72E00E94D60E38
:101E7000892B09F497C0EA85FB85848195816EEEF4
:101E800072E00E948E0E892B09F48EC0EA85FB85D4
:101E90008681978162E27BE00E94D60E892B09F44D
:101EA00085C0EA85FB858085918562E27BE00E94A2
:101EB0008E0E892B09F47CC0D12CC12C05E010E0DA
:101EC000812C912C540180E2C816D1040CF03FC043
:101ED000EA85FB8578018FEFE81AF80AC801880FB8
:101EE000991FE80FF91F808191816EEE72E00E94C8
:101EF000D60E892B09F45EC0EA85FB85EE0CFF1C2B
:101F0000EE0DFF1D8081918166E678E00E948E0EC5
:101F1000892B61F0880C991CAA1CBB1C689480F862
:101F20000E5F1F4FEFEFCE1ADE0ACDCFEA85FB859D
:101F3000EE0DFF1D808191816EEE72E00E948E0E8B
:101F4000892BD1F1880C991CAA1CBB1CE9CF8A856E
:101F50009B85000F111F080F191FF80180819181C7
:101F60006EEE72E00E94D60E892B41F180E290E085
:101F7000998788878C829D82AE82BF8288E090E0BC
:101F80009983888381E0DF91CF911F910F91FF901A
:101F9000EF90DF90CF90BF90AF909F908F9008957B
:101FA00080E0F1CF80E0EFCF80E0EDCF80E0EBCFBD
:101FB00080E0E9CF80E0E7CF80E0E5CF80E0E3CFCD
:101FC000AF92BF92CF92DF92EF92FF920F931F9347
:101FD000CF93DF93EB01809192038A3108F48BC099
:101FE000EA85FB8580819181843F9140C8F4198600
:101FF00018868FEF9FEFDC018C839D83AE83BF83B8
:102000008BE090E09983888381E0DF91CF911F91ED
:102010000F91FF90EF90DF90CF90BF90AF90089519
:102020008281938160E679E00E94D60E892B09F4C3
:1020300064C002E010E0C12CD12C760158018FEF72
:10204000A81AB80A809192038A151B04D1F1CCF129
:10205000EA85FB85C801880F991FE80FF91F808169
:10206000918168E572E00E948E0E892B49F1EA8524
:10207000FB85AA0CBB1CEA0DFB1D8081918160EBE6
:1020800074E00E94D60E892B49F0CC0CDD1CEE1CAE
:10209000FF1C6894C0F80E5F1F4FD0CF8A859B85C8
:1020A000A80EB91EF5018081918168E572E00E9459
:1020B000D60E892B21F1CC0CDD1CEE1CFF1CEBCFC6
:1020C000850101501109C80199230CF401969595D9
:1020D0008795998788870C9724F41986188680E05D
:1020E00094CFCC82DD82EE82FF8284E090E09983FF
:1020F000888381E08ACF80E088CF80E086CF80E04F
:1021000084CFAF92BF92CF92DF92EF92FF920F9364
:102110001F93CF93DF93EB01809192038A3108F4F0
:1021200096C0EA85FB858081918180329340C8F416
:10213000198618868FEF9FEFDC018C839D83AE8319
:10214000BF838BE090E09983888381E0DF91CF911A
:102150001F910F91FF90EF90DF90CF90BF90AF90C5
:102160000895828193816CEA7DE00E94D60E892BCE
:1021700009F46FC0EA85FB85848195816CEA7DE076
:102180000E94D60E892B09F466C003E010E0C12C32
:10219000D12C760158018FEFA81AB80A80919203CA
:1021A0008A151B04D1F1CCF1EA85FB85C801880FA3
:1021B000991FE80FF91F8081918166EB73E00E94FF
:1021C0008E0E892B49F1EA85FB85AA0CBB1CEA0D12
:1021D000FB1D8081918160E679E00E94D60E892BFB
:1021E00049F0CC0CDD1CEE1CFF1C6894C0F80E5F9F
:1021F0001F4FD0CF8A859B85A80EB91EF50180811F
:1022000091816CEB72E00E94D60E892B31F1CC0CDF
:10221000DD1CEE1CFF1CEBCF850101501109C8012C
:1022200099230CF4019695958795998788870C9743
:1022300024F41986188680E089CFCC82DD82EE8274
:10224000FF828BE090E09983888381E07FCF80E0FC
:102250007DCF80E07BCF80E079CF80E077CF8F9219
:102260009F92AF92BF92CF92DF92EF92FF920F9325
:102270001F93CF93DF93EB01EA85FB8582819381E6
:1022800068E873E10E94D60E892B09F49CC0809106
:102290009203843079F5EA85FB85848195816AEC27
:1022A00078E00E948E0E892B29F1EA85FB858681D4
:1022B000978160E372E00E94D60E892BD9F01986CF
:1022C00018868FEF9FEFDC018C839D83AE83BF83E5
:1022D00087E090E09983888381E0DF91CF911F911F
:1022E0000F91FF90EF90DF90CF90BF90AF909F90B5
:1022F0008F90089580919203843408F466C0EA8533
:10230000FB858481958168E873E10E948E0E892B9C
:1023100009F45DC0D12CC12C03E010E0812C912C7C
:10232000540180E2C816D1040CF03FC0EA85FB8559
:1023300078018FEFE81AF80AC801880F991FE80F93
:10234000F91F8081918160E372E00E94D60E892B93
:1023500009F43FC0EA85FB85EE0CFF1CEE0DFF1D66
:102360008081918160E476E00E948E0E892B61F07D
:10237000880C991CAA1CBB1C689480F80E5F1F4F28
:102380008FEFC81AD80ACDCFEA85FB85EE0DFF1D69
:102390008081918160E372E00E948E0E892BD9F0DA
:1023A000880C991CAA1CBB1CE9CF80E290E099879D
:1023B00088878C829D82AE82BF8287E090E099837D
:1023C000888381E08ACF80E088CF80E086CF80E07C
:1023D00084CF80E082CF80E080CF4F925F926F9277
:1023E0007F928F929F92AF92BF92CF92DF92EF92A5
:1023F000FF920F931F93CF93DF93EB01EA85FB8549
:10240000828193816EEA7DE00E94D60E892B09F4C9
:10241000AAC0EA85FB858481958166ED76E00E94FD
:10242000D60E892B09F4A1C0B12CA12C0F2EF3E0FC
:10243000EF2EF12CF02D812C912C00E010E0612C7E
:10244000712C412C512C80E3A816B1040CF060C013
:10245000EA85FB8567018FEFC81AD80AC701880F84
:10246000991FE80FF91F8081918166EF71E00E944A
:10247000D60E892B09F47BC0EA85FB85CC0CDD1CCC
:10248000EC0DFD1D808191816CED74E00E948E0E3B
:10249000892BE1F0282D392D402F512F662D772DD6
:1024A000842D952D01E00E944030822E689480F8A2
:1024B000932E042F152F662E772E482E592EF2E0DC
:1024C000EF0EF11C8FEFA81AB80ABDCF8A859B8545
:1024D000C80ED91EF6018081918160E971E00E94E9
:1024E0008E0E892B09F445C0282D392D402F512FF0
:1024F000662D772D842D952D01E00E944030822E8F
:10250000932E042F152F662E772E482E592ED7CFB7
:102510008C829D820E831F83282D392D402F512FB1
:10252000662D772D842D952D00E20E945B302A8345
:102530003B8385E090E09983888380E390E09987EE
:10254000888781E0DF91CF911F910F91FF90EF90ED
:10255000DF90CF90BF90AF909F908F907F906F90C3
:102560005F904F90089580E0EDCF80E0EBCF80E06A
:10257000E9CF80E0E7CF8F929F92AF92BF92CF9248
:10258000DF92EF92FF920F931F93CF93DF93EB01B4
:10259000EA85FB858281938168E273E20E94D60E10
:1025A000892B09F49DC080919203843079F5EA85E6
:1025B000FB85848195816AEC78E00E948E0E892BE0
:1025C00029F1EA85FB858681978160E372E00E94AC
:1025D000D60E892BD9F0198618868FEF9FEFDC0174
:1025E0008C839D83AE83BF8383E090E0998388834F
:1025F00081E0DF91CF911F910F91FF90EF90DF90DD
:10260000CF90BF90AF909F908F900895809192034C
:10261000843408F467C0EA85FB858481958164E988
:1026200071E10E948E0E892B09F45EC0B12CA12CA1
:1026300003E010E0C12CD12C760180E2A816B10491
:102640000CF040C0EA85FB85C801880F991FE80F90
:10265000F91F8081918160E372E00E94D60E892B80
:1026600009F444C0EA85FB8548018FEF881A980A6F
:10267000880C991CE80DF91D808191816AE976E04A
:102680000E948E0E892B61F0CC0CDD1CEE1CFF1C11
:102690006894C0F80E5F1F4FFFEFAF1ABF0ACDCF8F
:1026A0008A859B85880E991EF4018081918160E363
:1026B00072E00E948E0E892BD9F0CC0CDD1CEE1C32
:1026C000FF1CE8CF80E290E099878887CC82DD828A
:1026D000EE82FF8283E090E09983888381E089CF56
:1026E00080E087CF80E085CF80E083CF80E081CF1E
:1026F00080E07FCF8F929F92AF92BF92CF92DF9276
:10270000EF92FF920F931F93CF93DF9380919203E9
:10271000823208F47AC0EB01EA85FB8582819381DD
:102720006EE571E00E94D60E892B09F470C002E0BC
:1027300010E0C12CD12C760158018FEFA81AB80AED
:10274000809192038A151B04D1F1CCF1EA85FB85B7
:102750004801880C991CE80DF91D808191816EE972
:1027600077E00E94D60E892BC1F0CC0CDD1CEE1C4C
:10277000FF1C6894C0F8EA85FB85C501880F991F86
:10278000E80FF91F808191816EE571E00E948E0E45
:10279000892BA1F00E5F1F4FCFCFEA85FB85E80D97
:1027A000F91D808191816EEE72E00E94D60E892B18
:1027B00081F1CC0CDD1CEE1CFF1CDDCF850101502E
:1027C0001109C80199230CF401969595879599876D
:1027D0008887409784F41986188680E0DF91CF912E
:1027E0001F910F91FF90EF90DF90CF90BF90AF902F
:1027F0009F908F900895CC82DD82EE82FF828CE0E4
:1028000090E09983888381E0E9CF80E0E7CF80E0A2
:10281000E5CF80E0E3CF8F929F92AF92BF92CF92AD
:10282000DF92EF92FF920F931F93CF93DF938091EC
:102830009203893308F48BC0EB01EA85FB85828122
:10284000938160E47FE10E94D60E892B09F481C058
:10285000EA85FB858481958160EA7FE00E948E0E87
:10286000892B09F478C0D12CC12C03E010E0812C15
:10287000912C54018CE1C816D1040CF03FC0EA85BC
:10288000FB8578018FEFE81AF80AC801880F991FB5
:10289000E80FF91F8081918168E572E00E94D60EF1
:1028A000892B09F45AC0EA85FB85EE0CFF1CEE0D5E
:1028B000FF1D8081918160E476E00E948E0E892B5D
:1028C00061F0880C991CAA1CBB1C689480F80E5FF0
:1028D0001F4FEFEFCE1ADE0ACDCFEA85FB85EE0D56
:1028E000FF1D8081918166E272E00E948E0E892B2D
:1028F000B1F1880C991CAA1CBB1CE9CF8A859B8569
:10290000000F111F080F191FF8018081918168E5E0
:1029100072E00E94D60E892B21F18CE190E099871C
:1029200088878C829D82AE82BF828AE090E0998304
:10293000888381E0DF91CF911F910F91FF90EF90FD
:10294000DF90CF90BF90AF909F908F90089580E0E0
:10295000F1CF80E0EFCF80E0EDCF80E0EBCF80E003
:10296000E9CF80E0E7CF8F929F92AF92BF92CF9254
:10297000DF92EF92FF920F931F93CF93DF93EB01C0
:10298000809192038232C9F5EA85FB858281938129
:1029900068E572E00E94D60E892B79F12A853B8585
:1029A0008091920390E081509048880F991F820F88
:1029B000931FFC018081918168E572E00E94D60E30
:1029C000892BD9F0198618868FEF9FEFDC018C8355
:1029D0009D83AE83BF8386E090E09983888381E006
:1029E000DF91CF911F910F91FF90EF90DF90CF90EB
:1029F000BF90AF909F908F900895EA85FB8582816C
:102A0000938160E47FE10E94D60E892B09F478C09F
:102A100080919203813208F475C0EA85FB85848138
:102A2000958160EA7FE00E948E0E892B09F46CC0CC
:102A3000D12CC12C03E010E0812C912C5401F0E149
:102A4000CF16D1040CF03FC0EA85FB8578018FEFEB
:102A5000E81AF80AC801880F991FE80FF91F80814A
:102A6000918168E572E00E94D60E892B09F44EC070
:102A7000EA85FB85EE0CFF1CEE0DFF1D8081918128
:102A800060E476E00E948E0E892B61F0880C991C20
:102A9000AA1CBB1C689480F80E5F1F4FEFEFCE1A84
:102AA000DE0ACDCFEA85FB85EE0DFF1D8081918189
:102AB00066E272E00E948E0E892B51F1880C991CFF
:102AC000AA1CBB1CE9CF8A859B85000F111F080F2C
:102AD000191FF8018081918168E572E00E94D60E8D
:102AE000892BC1F080E190E0998788878C829D8254
:102AF000AE82BF8286E090E09983888381E070CFC8
:102B000080E06ECF80E06CCF80E06ACF80E068CF5D
:102B100080E066CF80E064CF8F929F92AF92BF92A9
:102B2000CF92DF92EF92FF920F931F93CF93DF9399
:102B300080919203803209F07CC0EB01EA85FB852D
:102B4000828193816CE271E00E94D60E892B09F498
:102B500072C0EA85FB85848195816EEE72E00E94E9
:102B60008E0E892B09F469C0D12CC12C03E010E032
:102B7000812C912C54018EE0C816D1040CF03FC07A
:102B8000EA85FB8578018FEFE81AF80AC801880FFB
:102B9000991FE80FF91F808191816CE271E00E941A
:102BA000D60E892B09F44BC0EA85FB85EE0CFF1C81
:102BB000EE0DFF1D8081918168E077E00E948E0E0E
:102BC000892B61F0880C991CAA1CBB1C689480F8A6
:102BD0000E5F1F4F8FEFC81AD80ACDCFEA85FB854D
:102BE000EE0DFF1D808191816EEE72E00E948E0ECF
:102BF000892B39F1880C991CAA1CBB1CE9CF8EE0EB
:102C000090E0998788878C829D82AE82BF828FE018
:102C100090E09983888381E0DF91CF911F910F919C
:102C2000FF90EF90DF90CF90BF90AF909F908F90EC
:102C3000089580E0F1CF80E0EFCF80E0EDCF80E03D
:102C4000EBCF80E0E9CFAF92BF92CF92DF92EF92CD
:102C5000FF920F931F93CF93DF9380919203883558
:102C600008F480C0EB01EA85FB858281938160E6F0
:102C700072E20E94D60E892B09F476C0EA85FB85A4
:102C80008481958164E971E10E948E0E892B09F49B
:102C90006DC00DE110E0F12CE12C80919203845085
:102CA000990B08171907D4F5EA85FB85C801880F29
:102CB000991FE80FF91F8081918164EF71E00E94F4
:102CC000D60E892B09F454C068018FEFC81AD80AB0
:102CD000EA85FB855601AA0CBB1CEA0DFB1D808111
:102CE000918168E572E00E948E0E892B39F0EE0C1E
:102CF000FF1C6894E0F80E5F1F4FCFCFEA85FB857D
:102D0000EA0DFB1D8081918164EA76E00E948E0EBF
:102D1000892B19F0EE0CFF1CEECF86010150110932
:102D2000C80199230CF40196959587959987888712
:102D30008A9704F1C701FF0CAA0BBB0B8C839D8300
:102D4000AE83BF8389E090E09983888381E0DF913F
:102D5000CF911F910F91FF90EF90DF90CF90BF9098
:102D6000AF90089580E0F3CF80E0F1CF80E0EFCF27
:102D700080E0EDCF80E0EBCFCF92DF92EF92FF9239
:102D8000CF93DF93EC01072E000C880B990B0E9468
:102D9000A6316B017C0120E030E040E45FE30E945B
:102DA000563220E030E048E452E40E94FC300E94B9
:102DB0006E31C617D70714F120E030E040EA5FE338
:102DC000C701B6010E94563220E030E048E452E4E8
:102DD0000E94FC3020E030E040E85FE30E948B304E
:102DE0000E946E316C177D075CF480E090E0DF910B
:102DF000CF91FF90EF90DF90CF90089580E0F6CFD5
:102E000081E0F4CF8F929F92AF92BF92CF92DF92E8
:102E1000EF92FF920F931F93CF93DF93DA018D917F
:102E20009C91DB011C96ED91FC911D978E179F07DD
:102E30000CF069C01A96ED91FC91BC01660F771FEA
:102E4000E60FF71FA080B180C1E0BC016170772759
:102E500080FDC0E0D0E0672B09F448C00F2EF4E6F7
:102E6000CF2ED12CF02D79014A01B601600F711FD0
:102E7000C5010E94BC16892B09F03FC0B801660F3E
:102E8000771F6C0D7D1DC5010E94BC16892BC1F5F5
:102E9000B801660F771F600F711F6C0D7D1DC50196
:102EA0000E94BC16892B91F123E030E0F70180816C
:102EB0009181019691838083821793074CF0118250
:102EC0001082D4018D919C91119701968D939C93C2
:102ED000CE01DF91CF911F910F91FF90EF90DF9086
:102EE000CF90BF90AF909F908F9008950F2EFCE9E8
:102EF000CF2EDD24DA94F02DB6CF21E030E0D6CF0E
:102F000022E030E0D3CFC1E0D0E0E2CFCFEFDFEF7F
:102F1000DFCF2F923F924F925F926F927F928F926C
:102F20009F92AF92BF92CF92DF92EF92FF920F9358
:102F30001F93CF93DF9300D000D0CDB7DEB71A82B6
:102F40001982DB011C962D913C911D9712161306D8
:102F50000CF0CEC07B016C011A96ED91FC9182E0E1
:102F600090E09C838B83828193816AE67AE00E9461
:102F7000D60E892B09F4BEC0F7012285338582E085
:102F800090E0AC014F5F5F4F5C834B83880F991FCC
:102F9000820F931FDC018D919C9169E773E00E9481
:102FA0008E0E892B09F4A8C00CEB11E09E012F5F57
:102FB0003F4FAE014D5F5F4FB701C6010E94021740
:102FC0005C01892B09F09AC09E012F5F3F4FAE0133
:102FD0004D5F5F4FB701C6010E940217019709F0CC
:102FE0008FC0212C312C2101F701248535858B815F
:102FF0009C81821793070CF059C00CEB11E09E01E5
:103000002F5F3F4FAE014D5F5F4FB701C6010E947A
:1030100002173C01F3E0AF16B10471F49E012F5F7B
:103020003F4FAE014D5F5F4FB701C6010E940217CF
:103030008615970509F066C00CEB11E09E012F5F25
:103040003F4FAE014D5F5F4FB701C6010E940217AF
:103050004C0183E0A816B10471F49E012F5F3F4F2D
:10306000AE014D5F5F4FB701C6010E940217881580
:10307000990509F049C06114710471F4A1E08A1640
:10308000910451F4220C331C441C551C689420F804
:10309000EFEFAE1ABE0AA8CF6A946728B9F589285F
:1030A000B9F5220C331C441C551CF2CFB186A08606
:1030B000248235824682578282E090E09183808329
:1030C00081E00F900F900F900F90DF91CF911F91A3
:1030D0000F91FF90EF90DF90CF90BF90AF909F90B7
:1030E0008F907F906F905F904F903F902F900895BA
:1030F00080E0E7CF80E0E5CF80E0E3CF80E0E1CF84
:1031000080E0DFCF80E0DDCF80E0DBCF80E0D9CF93
:1031100080E0D7CF4F925F926F927F928F929F9273
:10312000AF92BF92CF92DF92EF92FF920F931F93D5
:10313000CF93DF9300D000D0CDB7DEB71A821982CB
:1031400021E030E03C832B83209192032D3008F462
:1031500085C07B016C0109E713E09E012F5F3F4FA3
:10316000AE014D5F5F4F0E940217892B09F078C0B6
:103170009E012F5F3F4FAE014D5F5F4FB701C6010C
:103180000E940217019709F06DC09E012F5F3F4F0B
:10319000AE014D5F5F4FB701C6010E9402175C018F
:1031A000892B09F061C0412C512C320120919203EE
:1031B0008B819C812817190689F184F109E713E0B6
:1031C0009E012F5F3F4FAE014D5F5F4FB701C601BC
:1031D0000E9402174C019E012F5F3F4FAE014D5FD1
:1031E0005F4FB701C6010E94021721E082169104C9
:1031F00061F4009751F4440C551C661C771C6894CC
:1032000040F88FEFA81AB80AD1CF892879F501972D
:1032100079F5440C551C661C771CF3CFF701B18679
:10322000A086448255826682778281E090E0918315
:1032300080830F900F900F900F90DF91CF911F918F
:103240000F91FF90EF90DF90CF90BF90AF909F9045
:103250008F907F906F905F904F90089580E0E9CFBE
:1032600080E0E7CF80E0E5CF80E0E3CF80E0E1CF12
:1032700080E0DFCF0F931F93CF93DF93EB0125E91E
:1032800033E03B872A87EEE8F3E0248130E03D8796
:103290002C8720915F0430E03F872E8720812530E6
:1032A00009F05FC08C010E94BB1281115DC0BE019C
:1032B000C8010E94E00F81115AC0BE01C8010E94DE
:1032C0008110811157C0BE01C8010E947A1381117B
:1032D00054C0BE01C8010E948A18811151C0BE01AC
:1032E000C8010E94891781114EC0BE01C8010E9409
:1032F000ED1181114BC0BE01C8010E940B14811158
:1033000048C0BE01C8010E94B314811145C0BE016E
:10331000C8010E942F11811142C0BE01C8010E9444
:103320001E0F81113FC0BE01C8010E9423168111EA
:103330003CC0BE01C8010E948C15811139C0BE017C
:10334000C8010E94A107672B682B692BA1F5C80152
:103350000E94150890E080E0DF91CF911F910F91BE
:10336000089590E080E0F8CF81E090E0F5CF81E033
:1033700090E0F2CF81E090E0EFCF81E090E0ECCF01
:1033800081E090E0E9CF81E090E0E6CF81E090E05D
:10339000E3CF81E090E0E0CF81E090E0DDCF81E01D
:1033A00090E0DACF81E090E0D7CF81E090E0D4CF19
:1033B00081E090E0D1CF81E090E0CECFFC01208190
:1033C000318181E0232B09F480E00895FC0185819F
:1033D00096810895EF92FF920F931F93CF937C01F4
:1033E0008B01C0E0C031C0F4612F661F6627661FE5
:1033F000F70182810E94E800F70180810E94BB00F2
:1034000061E0892B09F060E0F70180810E94E8000B
:10341000000F111FCF5FE6CFCF911F910F91FF904B
:10342000EF9008950F931F93CF938C0160E0FC0100
:1034300082810E94E8008AE090E00E941302C0E0CE
:10344000C43060F461E0F80182810E94E80060E02D
:10345000F80182810E94E800CF5FF2CFCF911F91E7
:103460000F910895EF92FF921F93CF93DF93EC019A
:103470007B01CB0193709E838D8370E060E0CE0171
:103480000E94EA1910E01A3040F58C81882399F0E7
:10349000C701012E02C0880F991F0A94E2F7BC01F0
:1034A0006627727091FF02C06FEF70E0CE010E943C
:1034B000EA191F5FE8CFC701012E02C096958795D4
:1034C0000A94E2F7BC016170772780FF02C06FEFBA
:1034D00070E0CE010E94EA19ECCF70E060E0CE010E
:1034E0000E94EA1970E060E0CE010E94EA19CE0164
:1034F0000E94121ADF91CF911F91FF90EF900895D3
:103500006623B9F06B3008F06AE0615021E030E0EA
:10351000A90102C0440F551F6A95E2F7BA01FC01E8
:103520002581368162277327768365830E94321A4C
:10353000089561E0EACF6623D1F06B3008F06AE0CD
:1035400061504423B1F0FC012581368141E050E017
:10355000FA0102C0EE0FFF1F6A95E2F7BF01622B6E
:10356000732BFC01768365830E94321A089561E013
:10357000E7CFFC012581368141E050E0FA0102C02D
:10358000EE0FFF1F6A95E2F7BF0160957095622309
:103590007323E7CFFC01962F6B3008F09AE06FEFB2
:1035A0007FEF02C0660F771F9A95E2F760957095DE
:1035B00076836583CF010E94321A0895FC016483EB
:1035C000658176810E94321A0895CF93DF93EC01D2
:1035D000862F70E07983688350E05B834A832C8375
:1035E0001E821D8261E00E941B0161E08A810E94AF
:1035F0001B01DF91CF910895CF92DF92EF92FF925E
:103600000F931F93CF93DF938C0161E0FC018681C0
:103610000E94E8006AEF70E080E090E00E944402BF
:103620000E947C02F801C184D284E384F4846C1586
:103630007D058E059F0520F411861286138614865B
:10364000F801258521110EC0C184D284E384F4845D
:103650006C197D098E099F09603D774081059105B0
:1036600008F47DC0F80115860E947C02F80161878C
:103670007287838794871482138212821182108248
:1036800061E086810E941B0160E0F80186810E9452
:10369000E80064E170E080E090E00E944402F89469
:1036A00061E0F80186810E94E80088E290E00E94D3
:1036B000130260E0F80186810E941B01F12CE12CCD
:1036C000D1E022C0F80186810E94BB00D82FCF3FF5
:1036D00071F1F3E0FF15B8F4F0FC15C08E2D86955E
:1036E0008695869590E0F801E80FF91F2081220F5A
:1036F0002083F80130853C1728F4800F911F21604A
:10370000FC012083E394F394F4E5FF1580F0C0E01E
:10371000F80186810E94BB00D817190699F6CF5F81
:1037200081E090E00E941302CF3F91F7CBCF7894D5
:10373000F7E2FE15B0F4F801448120818181280F61
:103740003327331F8281280F311D8381820F932FEE
:10375000911D99274817190671F080E003C081E098
:1037600001C080E0DF91CF911F910F91FF90EF900A
:10377000DF90CF90089581E0F5CFCB01BA0120E032
:1037800030E040E151E40E94563220E030E040EA6F
:1037900050E40E94FC3020E030E040E052E40E941F
:1037A0008B300895CF92DF92EF92FF920F931F9389
:1037B000CF93DF93EC01162F0E94FC1A882309F4A3
:1037C00091C08F818B3009F45DC008F47AC08551B7
:1037D000823008F076C00A81602F6F7770E090E049
:1037E00080E00E94A63120E030E040E853E40E94EF
:1037F00056326B017C016B8170E090E080E00E94AA
:10380000A631A70196010E948B3020E030E040E213
:1038100051E40E94FC306E877F87888B998B002350
:103820000CF45AC0112359F04E855F856889798957
:10383000CE010E94BD1B6E877F87888B998B688124
:1038400070E090E080E00E94A43120E030E040E8A9
:1038500053E40E9456326B017C01698170E090E074
:1038600080E00E94A631A70196010E948B3020E0E3
:1038700030E040E251E40E94FC306A8B7B8B8C8B01
:103880009D8B1FC06A8170E090E080E00E94A431AF
:103890006E877F87888B998B112349F0AB01BC0120
:1038A000CE010E94BD1B6E877F87888B998B6881B4
:1038B00070E090E080E00E94A4316A8B7B8B8C8B5F
:1038C0009D8BCE010E96DF91CF911F910F91FF90AE
:1038D000EF90DF90CF90089590586E877F87888B08
:1038E000998BA0CF90E080E0EECFCF93DF93EC01F7
:1038F000862F6E834F83288791E09D8760E00E942A
:103900001B0161E08E810E94E80019861A861B86E1
:103910001C86DF91CF910895FC0182810895CF9399
:10392000DF93EC0160E088810E94E80084E190E090
:103930000E94130261E088810E94E80084E190E027
:103940000E941302DF91CF9108950F931F93CF939D
:10395000DF938C01D62FC0E00AC061E0F8018181BD
:103960000E94E800C8010E948F1CDD0FCF5FC830A5
:1039700040F4DD2394F360E0F80181810E94E800C7
:10398000F1CFDF91CF911F910F910895FF920F9387
:103990001F93CF93DF93EC01162F042FF22E2223D7
:1039A00014F160EEF6FE606100230CF0686006FF23
:1039B000646011230CF0626016FF6160CE010E940A
:1039C000A51C6F2DCE010E94A51C602FCE010E9468
:1039D000A51C612FCE010E94A51CDF91CF911F91E4
:1039E0000F91FF90089560ECDDCFDF92EF92FF9290
:1039F0000F931F93CF93DF93EC01F62ED42EE22E7C
:103A000060E00E94A51C60E0CE010E94A51C60E061
:103A1000CE010E94A51C60E0CE010E94A51C10E012
:103A20001BC08B819C81212F30E0A901440F551FC1
:103A3000420F531FFA013296E80FF91F2081FA0155
:103A40003196E80FF91F840F951F4081FC016081BA
:103A5000CE010E94C61C1F5F8A811817F0F41F1147
:103A6000E0CFEB81FC81812F90E09C01220F331F7E
:103A7000820F931FE80FF91FD082EB81FC819C011C
:103A80002F5F3F4FE20FF31FE0822B813C810296B4
:103A9000820F931FFC010083C4CF60E0CE010E941F
:103AA000A51C60E0CE010E94A51C60E0CE010E9432
:103AB000A51C60E0CE010E94A51CDF91CF911F9153
:103AC0000F91FF90EF90DF9008950F931F9390E078
:103AD000FC01E255FF4F7491FC01E656FF4FE49163
:103AE0006111672F89019A013F70F0E0EE0FFF1F0F
:103AF000E057FF4F85919491462F672F0E946A2FC0
:103B0000611571058105910529F06F5F7F4F8F4F1A
:103B10009F4F9F701F910F910895DF92EF92FF9238
:103B20000F931F93CF93DF93CDB7DEB7A1970FB657
:103B3000F894DEBF0FBECDBF7C01CB01BA01D22EFF
:103B400019A221E02D1520F48E010F5D1F4F0EC02C
:103B50000F2EFAE0DF2EF02DF7CFE95CD801EE93BF
:103B60008D01611571058105910579F02D2D30E0EC
:103B700050E040E00E94D92FE62F622F732F842F50
:103B8000952FEA3054F7E05DE9CF1097F9F0FD0189
:103B900001900020E9F73197AF014A1B5B0BD70179
:103BA000ED91FC910280F381E02DB801C7010995E8
:103BB000A1960FB6F894DEBF0FBECDBFDF91CF91B7
:103BC0001F910F91FF90EF90DF90089590E080E0BB
:103BD000EFCF2115310549F4DC01ED91FC91019005
:103BE000F081E02D642F099508950E948D1D0895A0
:103BF0009A01462F50E070E060E00E94E91D0895B0
:103C0000CF92DF92EF92FF920F931F93CF93DF93A8
:103C1000EC016A017B012115310581F4E881F9810C
:103C20000190F081E02D642F0995DF91CF911F91D4
:103C30000F91FF90EF90DF90CF9008952A303105DB
:103C4000C1F4FF2024F02AE00E948D1DEECF6DE22A
:103C50000E94CA028C0144275527BA014C195D09FC
:103C60006E097F092AE0CE010E948D1D800F911FF1
:103C7000DCCF0E948D1DD9CF9A01AB01770F660B67
:103C8000770B0E94001E0895DC01ED91FC910280EB
:103C9000F381E02D42E050E062E471E0099508957F
:103CA0000F931F93CF93DF93EC010E94F81D8C01BB
:103CB000CE010E94441E800F911FDF91CF911F9172
:103CC0000F9108950F931F93CF93DF93EC01888199
:103CD0000E94BB00182F89810E94BB00282F810FF2
:103CE0009927991F019779F18A819B81AC81BD81C8
:103CF000BB230CF442C04A815B816C817D818E8143
:103D000090E0B0E0A0E084179507A607B70744F459
:103D10008E8190E0B0E0A0E08A839B83AC83BD837A
:103D200068814AE050E081E795E00E94501E698179
:103D30004AE050E081E795E00E94501EDF91CF916C
:103D40001F910F910895121760F48A819B81AC81B5
:103D5000BD810196A11DB11D8A839B83AC83BD8368
:103D6000C3CF8A819B81AC81BD810197A109B10933
:103D70008A839B83AC83BD83B7CF1A821B821C824C
:103D80001D82CECF6115710581F0FB0101900020ED
:103D9000E9F73197AF01461B570BDC01ED91FC9120
:103DA0000280F381E02D0995089590E080E0089568
:103DB00085ED8093BC004091FE045091FF0460911A
:103DC000000570910105495F5F4F6F4F7F4F689409
:103DD00012F876956795579547951694D1F7809187
:103DE000BC0084FF1FC08091FE049091FF04A0914D
:103DF0000005B0910105892B8A2B8B2B81F341158E
:103E000051056105710549F085E38A95F1F70000D8
:103E10004150510961097109E2CF8091FD040E946E
:103E2000F104089510924B0508950F931F93CF93BB
:103E3000DF93EC01862F688349832A8361E00E9427
:103E40001B0161E089810E941B018A8190E09C0135
:103E5000220F331F61E070E0820F931F0E94C33274
:103E60009C838B8310E08A81181748F400E020E0DF
:103E700040E0612FCE010E94F51C1F5FF4CFDF915F
:103E8000CF911F910F9108954F925F926F927F9201
:103E9000AF92BF92CF92DF92EF92FF920F931F9358
:103EA000CF93DF9300D000D0CDB7DEB7809106026C
:103EB00090910702049709F440C080913402863043
:103EC00009F484C780913402893011F40C94882756
:103ED000809134028A3011F40C9498278091340236
:103EE0008B3011F40C94C827809134028C3011F47B
:103EF0000C94E227809134028E3011F40C94232824
:103F0000809134028D3011F40C9483288091340216
:103F10008F3009F061C780910402909105020197EA
:103F200009F05AC710913502183010F40C94C128CA
:103F300010920502109204024FC7809108029091DE
:103F40000902892B09F0B9CF81E090E09093090232
:103F50008093080280913402813009F4BFC08091BF
:103F60003402823009F4C7C080913402833009F4EE
:103F7000C9C080913402843009F4E1C080913402D8
:103F8000843609F4E4C080913402853609F41FC1F7
:103F900080913402853009F435C180913402873034
:103FA00009F437C180913402883009F49EC18091B0
:103FB0003402883209F4A4C180913402823309F4B6
:103FC00008C280913402833309F41EC28091340206
:103FD000843309F444C280913402853309F466C203
:103FE00080913402863309F48DC280913402873384
:103FF00009F4AFC280913402883309F4D4C28091AD
:104000003402863409F4FEC280913402873409F404
:104010000BC380913402883409F426C380913402A2
:10402000893409F448C3809134028A3409F46AC39C
:10403000809134028B3409F49CC3809134028C3417
:1040400009F4BDC3809134028D3409F437C48091E2
:1040500034028E3409F46AC4809134028F3409F436
:104060008DC4809134028A3509F4AFC48091340242
:104070008B3509F4BAC4809134028C3509F4C9C473
:10408000809134028D3509F418C5809134028E3543
:1040900009F479C5809134028F3509F4BBC580914C
:1040A0003402863109F43DC680913402853109F429
:1040B00051C680913402883109F08EC68091340255
:1040C0000FE112E0F80180836FE771E087E893E089
:1040D0000E943A19D80111968C937EC6E4E3F2E06F
:1040E00080810FE112E0D8018C9381810E94BB0096
:1040F000F801818371C6E4E3F2E0628181810E946C
:10410000E8006AC604E312E0D80111968C910E947F
:10411000C301F801208120931F029C01992344F0E0
:10412000309320029078992334F08093210254C672
:1041300021503F4FF5CF01979F6F0196F6CFE4E3F3
:10414000F2E06281818170E00E945A0145C6E4E399
:10415000F2E08281282F30E03093030220930202A4
:10416000918191111AC090913702913051F08BE8F2
:1041700093E00E949B0B60E0809102020E941B0171
:104180002BC661E00E941B01609102027091030244
:104190008BE893E00E94270C1FC690913702913064
:1041A00051F088E893E00E949B0B60E0809102024E
:1041B0000E941B0111C661E00E941B016091020276
:1041C0007091030288E893E00E94270C05C6E4E39F
:1041D000F2E0828190E09093030280930202818159
:1041E000811108C06091360270E08BE893E00E9474
:1041F000E50AF2C56091360270E088E893E00E941B
:10420000E50AEAC5E4E3F2E0628181810E941B01D4
:10421000E3C50F2EF4E3AF2EF2E0BF2EF02DD50153
:1042200011968C91282F30E03093030220930202E4
:1042300061E00E941B0102E012E060E0F801808171
:104240000E94E80082E090E00E94130261E0D80141
:104250008C910E94E80085E090E00E94130260E0EB
:10426000F80180810E94E80060E0D8018C910E94F2
:104270001B0128EF34E241E050E061E0F801808169
:104280000E94651D2B013C012AE330E040E050E034
:104290000E94AF2F69017A01D5018C910FE112E0E4
:1042A000F8018083C301B20120E03AE340E050E02E
:1042B0000E94AF2FD80111962C93DD24EE24B0E894
:1042C000FB22FF201CF0C092210286C5E1E0CE1A3D
:1042D000D108E108F108DD24DA94ED2CFE2CFFEF83
:1042E000CF1ADF0AEF0AFF0AEECF80913402EFE126
:1042F000F2E0808381E0818384E0828313826CC555
:104300008091040290910502892B09F465C5809182
:1043100036028823A9F080913602813099F180918C
:1043200036028230C1F180913602833089F4609187
:10433000350226E045E18CEE91E00E94751C08C034
:104340006091350226E04BE08CEE91E00E94751CF6
:1043500060E08CEE91E00E94D21BAC0180913402AF
:1043600080930A0291E09530F8F4292F30E0FA01A9
:10437000E20FF31F31978081265F3D4FD9018C9367
:104380009F5FF1CF6091350226E046E18CEE91E02F
:104390000E94751CDDCF6091350226E045E18CEE70
:1043A00091E00E94751CD4CF95E0993068F4292FD4
:1043B00030E0FA01E20FF31F31978081265F3D4F15
:1043C000F90180839F5FF1CF1092050210920402E1
:1043D00003C5E4E3F2E021812250330BC901880FC9
:1043E000991F880F991F880F991F821B930B8E535B
:1043F0009E4F32814181618121E0311101C020E075
:104400006F5F0E94E51AE8C4809135028250990BD3
:104410009C01220F331F220F331F220F331FA901CC
:10442000481B590BCA018E539E4F0E94DE198823E8
:1044300009F4CCCDE4E3F2E021812250330B8281F8
:1044400061E0811101C060E047E0429FC001439FED
:10445000900D11248E539E4F0E94DE1ABDC4809190
:1044600035028250990B9C01220F331F220F331FFC
:10447000220F331FD901A81BB90BCD018E539E4FBC
:104480000E94DE19882309F4A6CDE4E3F2E021813D
:104490002250330B628147E0429FC001439F900D41
:1044A00011248E539E4F0E94CA1A96C480913502E1
:1044B0008250990B9C01220F331F220F331F220FB2
:1044C000331FF901E81BF90BCF018E539E4F0E9459
:1044D000DE19882309F484CDE4E3F2E0218122503F
:1044E000330B8381628141E0811101C040E057E0DC
:1044F000529FC001539F900D11248E539E4F0E94D6
:104500009B1A6AC4809135028250990B9C01220F3C
:10451000331F220F331F220F331FA901481B590BD2
:10452000CA018E539E4F0E94DE19882309F45DCD87
:10453000E4E3F2E021812250330B628147E0429FA5
:10454000C001439F900D11248E539E4F0E94801AEC
:1045500043C4809135028250990B9C01220F331F76
:10456000220F331F220F331FD901A81BB90BCD0116
:104570008E539E4F0E94DE19882309F43BCDE4E35D
:10458000F2E021812250330B82816381762F682FE4
:1045900047E0429FC001439F900D11248E539E4FD0
:1045A0000E94321A19C4809135028250990B9C01E5
:1045B000220F331F220F331F220F331FF901E81B75
:1045C000F90BCF018E539E4F0E94DE19882309F408
:1045D00016CD04E312E0D80111962C912250330B32
:1045E00047E0429FC001439F900D11248E539E4F80
:1045F0000E94E619F8012081EFE1F2E02083818337
:104600009283EAC3E4E3F2E081818250990B418115
:1046100061814F5F9C01220F331F820F931F8055D2
:104620009E4F0E94760ED8C3809135028250990B1E
:104630009C01220F331F820F931F80559E4F0E94B3
:10464000060D882309F4E5CCE4E3F2E08181825091
:10465000990B62819C01220F331F820F931F80559B
:104660009E4F0E946F0EB8C3809135028250990B05
:104670009C01220F331F820F931F80559E4F0E9473
:10468000060D882309F4CACCE4E3F2E0818182506C
:10469000990B9C01220F331F820F931F228163818C
:1046A000762F622FE12C00E024E040E080559E4F01
:1046B0000E94E00D91C3809135028250990B9C01BC
:1046C000220F331F820F931F80559E4F0E94060DAD
:1046D000882309F4A8CCE4E3F2E081818250990BAD
:1046E0009C01220F331F820F931F22816381762F3B
:1046F000622FE12C00E024E041E080559E4F0E94B3
:10470000E00D6AC3809135028250990B9C01220F03
:10471000331F820F931F80559E4F0E94060D8823E2
:1047200009F486CC04E312E0D80111968C9111971C
:104730008250990B13966C919C01220F331F820FAC
:10474000931F80559E4F0E940D0D8983F801818132
:104750008250990B9C01220F331F820F931F2281DD
:1047600041E0BE016F5F7F4F80559E4F0E94A20DBA
:1047700033C3809135028250990B9C01220F331F65
:10478000820F931F80559E4F0E94060D882309F4C7
:1047900054CCE4E3F2E08381898381818250990BD8
:1047A0009C01220F331F820F931F228141E0BE0123
:1047B0006F5F7F4F80559E4F0E94A20D0DC3809169
:1047C00035028250990B9C01220F331F820F931FD9
:1047D00080559E4F0E94060D882309F433CC04E3D4
:1047E00012E0D80111962C9111972250330B12969A
:1047F0008C910F2EFAE0FF2EF02D6F2D0E941A30B3
:10480000A901440F551F240F351F682FC90180557A
:104810009E4F0E940D0D8983F80121812250330B98
:1048200082816F2D0E941A30692FC901880F991F4C
:10483000820F931F80559E4F0E940D0D80688A83C2
:10484000D80111962C9111972250330B13968C910D
:104850006F2D0E941A30A901440F551F240F351FD8
:10486000682FC90180559E4F0E940D0D8B83F80162
:1048700021812250330B83816F2D0E941A30692FC2
:10488000C901880F991F820F931F80559E4F0E9468
:104890000D0D8C83D80111968C918250990B9C013F
:1048A000220F331F820F931F20E044E0BE016F5F91
:1048B0007F4F80559E4F0E94A20D8EC2809135027F
:1048C0008250990B9C01220F331F820F931F80553A
:1048D0009E4F0E94060D882309F4B9CBE4E3F2E071
:1048E000F280A380B4E0AB9E50011124D12CC12CE6
:1048F000CA14DB040CF070C2009135020250110B97
:104900008F2D0E94C301F801EE0FFF1FE00FF11F72
:10491000E12C00E024E040E0BC01CF0180559E4F37
:104920000E94E00DEFEFCE1ADE0AE2CF8091350251
:104930008250990B9C01220F331F820F931F8055C9
:104940009E4F0E94060D882309F486CB8FEF898342
:104950008A838B838C83809135028250990B9C01D2
:10496000220F331F820F931F20E044E0BE016F5FD0
:104970007F4F80559E4F0E94A20D2EC2809135021E
:104980008250990B9C01220F331F820F931F805579
:104990009E4F0E94060D882309F463CB19821A8268
:1049A0001B821C82809135028250990B9C01220F40
:1049B000331F820F931F20E044E0BE016F5F7F4FE3
:1049C00080559E4F0E94A20D07C2A4E3B2E011964B
:1049D0008C911197EDEAF1E0808312968C911297F9
:1049E000818313968C918283F7C1E4E3F2E0218105
:1049F0002250330B45E0429FC001439F900D11248C
:104A00002281418161814F5F81579E4F0E94151F16
:104A1000E3C10F2EF4E3EF2EF2E0FF2EF02DD701CD
:104A20001196EC911197E250FF0B12962C91129770
:104A300011964C91119711966C914F5F35E03E9F06
:104A4000C0013F9F900D112481579E4F0E94151F5A
:104A5000F701838190E0959587959595879581706D
:104A6000D82ED194838190E0959587958170182FE9
:104A7000119583818170C82EC194F12CE12C809115
:104A800036028E151F0409F00CF4A6C18091350280
:104A90008250990B9C01220F331F220F331F820F6C
:104AA000931F0C2D212F4D2D6E2D81579E4F0E944F
:104AB000F51CFFEFEF1AFF0AE2CF80913602811159
:104AC00016C0E4E3F2E021812250330B6381EDEA6A
:104AD000F1E045E0429FC001439F900D1124028107
:104AE0002181408181579E4F0E94F51C75C1209104
:104AF00035022250330B45E0429FC001439F900D89
:104B0000112481579E4F0E948C1C182FF12CE12CF0
:104B10001CC0809137028E151F0401F120913502CF
:104B20002250330BEDEAF1E045E0429FC001439F84
:104B3000900D11240281218140816E2D81579E4F5D
:104B40000E94F51C2FEFE21AF20A1E151F0409F04D
:104B50000CF442C1809136028130D9F28091360244
:104B6000823059F080913602833061F780913702AC
:104B70008E151F0409F034F7D1CF809137028E15BE
:104B80001F0464F6EFCF80913702811103C081E0EA
:104B90008093370204E312E0D80111962C91225041
:104BA000330B45E0429FC001439F900D1124815774
:104BB0009E4F0E948C1CD82EF801E280F12C03C07D
:104BC0003FEFE31AF30ADE141F0409F00CF404C1EA
:104BD000E4E3F2E082819701281B3109C901638176
:104BE00070E00E942630892B59F72091350222501F
:104BF000330BEDEAF1E045E0429FC001439F900D89
:104C000011240281218140816E2D81579E4F0E9487
:104C1000F51CD6CF04E312E0D80111962C91225056
:104C2000330B45E0429FC001439F900D11248157F3
:104C30009E4F0E948C1CC82EF8018381811138C0C0
:104C4000F12CE12C15C0209135022250330B45E0A8
:104C5000429FC001439F900D112400E020E040E0FE
:104C60006E2D81579E4F0E94F51CFFEFEF1AFF0A31
:104C7000CE141F0409F00CF4AFC0809136028E15DB
:104C80001F0409F304F3209135022250330BEDEA9F
:104C9000F1E045E0429FC001439F900D1124028145
:104CA000218140816E2D81579E4F0E94F51CDDCFE2
:104CB000D12C760115C0209135022250330B45E0EE
:104CC000429FC001439F900D112400E020E040E08E
:104CD0006E2D81579E4F0E94F51C31E0E31AF108BA
:104CE0001E141F040CF078C0809136029601281B18
:104CF0003109E216F306FCF2209135022250330B03
:104D0000EDEAF1E045E0429FC001439F900D112480
:104D10000281218140816E2D81579E4F0E94F51C9A
:104D2000DCCF04E312E0D80111966C914AE050E028
:104D300081E795E00E94F81DF801618170E087E845
:104D400093E00E94120887E893E00E941B08D801B4
:104D50001C9242C06FE771E087E893E00E943A1925
:104D6000892B49F480913402EFE1F2E08083809155
:104D70007F01818331C080913402EFE1F2E08083D2
:104D8000AFE7B1E08C91818312969C9112971396B4
:104D90008C9113979283838314968D919D910D909E
:104DA000BC91A02D8483492F5A2F6B2F77274583E1
:104DB000AD016627772746838B2F9927AA27BB2724
:104DC000878387E893E00E94150806C0809104025B
:104DD00090910502019799F00F900F900F900F900E
:104DE000DF91CF911F910F91FF90EF90DF90CF90C7
:104DF000BF90AF907F906F905F904F900895E4E3E5
:104E0000F2E081818F70D82E818190E09595879511
:104E1000959587959595879595958795182F1370F6
:104E2000218130E0022E232F000C221F330B000CB7
:104E3000221F331FB22FB370CB2E828190E0982FA8
:104E40008827A380A80EB92EB11CED2CF12CF701F8
:104E5000EA55FD4F808181112AC062E08D2D0E94AC
:104E60001B0181E0F701EA55FD4F8083F701E15C0A
:104E7000FC4F1083C501B0E0A0E0F701EE0FFF1F6B
:104E8000EE0FFF1FEE0FFF1FE25AFD4F808391834D
:104E9000A283B3831482158216821782112359F0DC
:104EA0001130A1F0109205021092040295CF8D2DC1
:104EB0000E948509D2CFA7014A585E4F01E02C2DF0
:104EC00068E378E08D2D0E945C06ECCFF701EE0FD1
:104ED000FF1FEE0DFF1DEE0FFF1FEE0FFF1FE15531
:104EE000FD4F108211821282138214821582168263
:104EF00017821086118612861386A7014A585E4FC4
:104F000000E021E068E378E08D2D0E945C06CACFC6
:104F10008091040290910502019709F05DCF809184
:104F200035020E948509109205021092040254CFA6
:104F30008091040290910502019709F04DCF24E37E
:104F400032E0D9011196EC91F0E0EE0FFF1FEE0F69
:104F5000FF1FE65CFD4F80819181A281B381F90141
:104F60002081EFE1F2E020838183492F5A2F6B2FBC
:104F700077274283AD016627772743838B2F9927B5
:104F8000AA27BB278483109205021092040224CF23
:104F90008091040290910502019709F01DCF10E065
:104FA00000E002C00F5F1F4F093011050CF014CF55
:104FB000F801EA55FD4F80818823A1F3802F0E94DC
:104FC0008509F0CF8091040290910502019709F0C4
:104FD00003CF209135022A3018F130E020E050E074
:104FE00040E02930310584F4F901EA55FD4F808114
:104FF00090E0022E02C0880F991F0A94E2F7480F32
:10500000591F2F5F3F4FEDCF80913402EFE1F2E067
:105010008083418352831092050210920402DCCEF9
:1050200080913402EFE1F2E080831182A22FB0E0A0
:10503000AA55BD4F8C9190E002C0880F991F2A9508
:10504000E2F78283E8CF80910402909105020197F4
:1050500009F0C2CEE4E3F2E011810281183008F0D9
:1050600045C0C12ED12CF601EA55FD4F808181113A
:1050700042C07601EE0CFF1CEE0CFF1CEE0CFF1C78
:10508000EC18FD089701285B3C4F7901D9011C936E
:105090001F5F11961C93F9011282138214821582EC
:1050A0000683808162E00E941B01D70111968C91DA
:1050B00062E00E941B01F601E955FD4F81E080830B
:1050C000F601EA55FD4F8083F701808100E022E080
:1050D000A70162E67EE10E945C06D70111968C91E1
:1050E00022E0A70162E67EE10E945C0610920502C2
:1050F0001092040271CE812F0E94850981E0810FF8
:105100000E948509B6CF8091040290910502019713
:1051100009F062CE04E312E0F801818190E0FC0125
:10512000EE0FFF1FEE0FFF1FEE0FFF1FE81BF90B27
:10513000E85BFC4FC280D380E480F5804AE050E019
:10514000B60181E795E00E943C1E63E471E081E7CF
:1051500095E00E94C21ED8018C91EFE1F2E08083BD
:10516000C1828D2D99278283990F880B982F838375
:10517000DD0CCC08DC2CC4821092050210920402D3
:105180002BCE812F0E94850981E0810F0E94850925
:105190000C94981F80913902811103C00E94441F12
:1051A00008950E94441F1092390208956FEF7FEF17
:1051B00081E090E00E9402036FEF7FEF81E090E0DA
:1051C0000E94C8056FEF7FEF81E090E00E945F0BC7
:1051D00008951F920F920FB60F9211240F931F93F1
:1051E0002F933F934F935F936F937F938F939F93EF
:1051F000AF93BF9300910F061091100620911106F6
:105200003091120690910E06B901A8014F5F5F4FD1
:105210006F4F7F4F83E0890F8D3740F086E8890F0D
:10522000B901A8014E5F5F4F6F4F7F4F80930E060D
:1052300040930F0650931006609311067093120668
:105240008091130690911406A0911506B091160650
:105250000196A11DB11D8093130690931406A0938F
:105260001506B0931606BF91AF919F918F917F91D4
:105270006F915F914F913F912F911F910F910F90DF
:105280000FBE0F901F9018950E94D8010E94CF0C5E
:105290000E94CA280E947004FBCF1F920F920FB683
:1052A0000F9211242F933F934F935F936F937F93AC
:1052B0008F939F93AF93BF93EF93FF9381E795E015
:1052C0000E94E103FF91EF91BF91AF919F918F9168
:1052D0007F916F915F914F913F912F910F900FBEF2
:1052E0000F901F9018951F920F920FB60F921124D6
:1052F0002F938F939F93AF93BF93EF93FF93E0917F
:105300008105F0918205808182FD14C0E1E7F5E01E
:10531000A689B7892C91818D8F5F8F73928D8917A4
:1053200071F0DF01E18DF0E0EF58FA4F258F5996CB
:105330008C9305C0E0918705F09188058081FF91ED
:10534000EF91BF91AF919F918F912F910F900FBED1
:105350000F901F9018951F920F920FB60F92112465
:105360002F933F934F935F936F937F938F939F936D
:10537000AF93BF93EF93FF93E091B900E87FE93CCF
:1053800008F0D5C0F0E0E953F64D0C943A308C2B80
:10539000972A972A972A972A972A972A972A902A0C
:1053A000972A972A972A972A972A972A972A902AFC
:1053B000972A972A972A972A972A972A972AA82AD4
:1053C000972A972A972A972A972A972A972ACE2A9E
:1053D000972A972A972A972A972A972A972AA82AB4
:1053E000972A972A972A972A972A972A972AD42A78
:1053F000972A972A972A972A972A972A972ADA2A62
:10540000972A972A972A972A972A972A972AEC2A3F
:10541000972A972A972A972A972A972A972A162B04
:10542000972A972A972A972A972A972A972AE02A2B
:10543000972A972A972A972A972A972A972AFA2A01
:10544000972A972A972A972A972A972A972A192BD1
:10545000972A972A972A972A972A972A972A192BC1
:10546000972A972A972A972A972A972A972A192BB1
:10547000972A972A972A972A972A972A972A192BA1
:10548000972A972A972A972A972A972A972A222B88
:10549000972A972A972A972A972A972A972A532B47
:1054A000972A972A972A972A972A972A972A222B68
:1054B000972A972A972A972A972A972A972A532B27
:1054C000972A972A972A972A972A972A972A3A2B30
:1054D000972A972A972A972A972A972A972A572B03
:1054E000972A972A972A972A972A972A972A572BF3
:1054F000972A972A972A972A972A972A972A6C2BCE
:10550000972A972A972A972A972A972A972A862BA3
:10551000972A972A972A972A972A972A972A862B93
:10552000809170058093BB0081E00E948204FF910E
:10553000EF91BF91AF919F918F917F916F915F910B
:105540004F913F912F910F900FBE0F901F90189584
:1055500090916F0580916E05981768F080914D05C8
:10556000811119C081E080934C0584EA8093BC00CE
:1055700010924B05DCCFE0916F0581E08E0F809398
:105580006F05F0E0E25BFA4F80818093BB0081E021
:105590000E948204CCCF0E94D81EC9CF80E28093A3
:1055A0004A050E94D81EC3CF80E380934A050E941B
:1055B000D81EBDCF88E380934A050E947C04B7CFF4
:1055C000E0916F0581E08E0F80936F05F0E0809190
:1055D000BB00E25BFA4F808390916F0580916E056E
:1055E000981720F481E00E948204A1CF80E00E94FD
:1055F00082049DCFE0916F0581E08E0F80936F054F
:10560000F0E08091BB00E25BFA4F808380914D0512
:10561000811109C081E080934C0584EA8093BC002D
:1056200010924B0584CF0E94D81E81CF0E94D81EB5
:105630007ECF83E080934B051092490581E00E9464
:10564000820475CF80914905803280F4E09149054C
:1056500081E08E0F80934905F0E08091BB00E75D0B
:10566000FA4F808381E00E94820461CF80E00E9433
:1056700082045DCF0E947C0480914905803230F421
:10568000E0914905F0E0E75DFA4F1082609149052D
:1056900070E0E0912705F091280589E295E00995F1
:1056A0001092490544CF80E00E94820440CF84E0FC
:1056B00080934B051092260510922505E091230555
:1056C000F0912405099580912505811105C081E09F
:1056D0008093250510920305E091260581E08E0F49
:1056E00080932605F0E0ED5FFA4F80818093BB0048
:1056F0009091260580912505981720F481E00E945D
:10570000820415CF80E00E94820411CF81E00E94C4
:10571000820410924B050BCF10924A050E94D81EAE
:1057200006CF1F920F920FB60F9211242F933F9323
:105730004F935F936F937F938F939F93AF93BF9399
:10574000CF93DF93EF93FF93D9B120916D00E0E603
:10575000F4E0CD2FC09582A1C82391A19D23C92B30
:1057600080A18D278223C823D0A3C0FF0AC0DF01F8
:105770000190F081E02D6D2F617012968D919C91BA
:105780000995C1FF0DC0D1FB662760F9A0E6B4E022
:105790001496ED91FC91159716968D919C91099513
:1057A000C2FF0DC0D2FB662760F9A0E6B4E01896F0
:1057B000ED91FC9119971A968D919C910995C3FFD3
:1057C0000DC0D3FB662760F9A0E6B4E01C96ED910E
:1057D000FC911D971E968D919C910995C4FF0DC05B
:1057E000D4FB662760F9A0E6B4E05096ED91FC91F9
:1057F000519752968D919C910995C5FF0DC0D5FB8F
:10580000662760F9A0E6B4E05496ED91FC915597B7
:1058100056968D919C910995C6FF0DC0D6FB6627C3
:1058200060F9A0E6B4E05896ED91FC9159975A962C
:105830008D919C910995CC2374F46D2F661F66277A
:10584000661FA0E6B4E05C96ED91FC915D975E96D4
:105850008D919C910995FF91EF91DF91CF91BF912F
:10586000AF919F918F917F916F915F914F913F91F8
:105870002F910F900FBE0F901F9018951F920F92AF
:105880000FB60F9211242F933F934F935F936F9313
:105890007F938F939F93AF93BF93CF93DF93EF93B8
:1058A000FF93D6B120916C00E3E8F4E0CD2FC095D2
:1058B00082A1C82391A19D23C92B80A18D2782237A
:1058C000C823D0A3C0FF0AC0DF010190F081E02D02
:1058D0006D2F617012968D919C910995C1FF0DC03D
:1058E000D1FB662760F9A3E8B4E01496ED91FC9132
:1058F000159716968D919C910995C2FF0DC0D2FB0C
:10590000662760F9A3E8B4E01896ED91FC91199729
:105910001A968D919C910995C3FF0DC0D3FB662704
:1059200060F9A3E8B4E01C96ED91FC911D971E96DA
:105930008D919C910995C4FF0DC0D4FB662760F939
:10594000A3E8B4E05096ED91FC91519752968D9159
:105950009C910995C5FF0DC0D5FB662760F9A3E8AA
:10596000B4E05496ED91FC91559756968D919C918B
:105970000995C6FF0DC0D6FB662760F9A3E8B4E021
:105980005896ED91FC9159975A968D919C91099555
:10599000CC2374F46D2F661F6627661FA3E8B4E05E
:1059A0005C96ED91FC915D975E968D919C91099529
:1059B000FF91EF91DF91CF91BF91AF919F918F9127
:1059C0007F916F915F914F913F912F910F900FBEFB
:1059D0000F901F9018951F920F920FB60F921124DF
:1059E0002F933F934F935F936F937F938F939F93E7
:1059F000AF93BF93CF93DF93EF93FF93D3B12091F6
:105A00006B00E6EAF4E0CD2FC09582A1C82391A1F6
:105A10009D23C92B80A18D278223C823D0A3C0FF3B
:105A20000AC0DF010190F081E02D6D2F61701296A8
:105A30008D919C910995C1FF0DC0D1FB662760F93E
:105A4000A6EAB4E01496ED91FC91159716968D9107
:105A50009C910995C2FF0DC0D2FB662760F9A6EAAA
:105A6000B4E01896ED91FC9119971A968D919C913E
:105A70000995C3FF0DC0D3FB662760F9A6EAB4E021
:105A80001C96ED91FC911D971E968D919C91099508
:105A9000C4FF0DC0D4FB662760F9A6EAB4E05096B7
:105AA000ED91FC91519752968D919C910995C5FF6E
:105AB0000DC0D5FB662760F9A6EAB4E05496ED91D7
:105AC000FC91559756968D919C910995C6FF0DC0F6
:105AD000D6FB662760F9A6EAB4E05896ED91FC91F2
